{
  "address": "0x6524fDB494679a12B2f1d1B051D8dEedB2E5cc25",
  "abi": [
    {
      "inputs": [
        {
          "internalType": "address",
          "name": "_factory",
          "type": "address"
        }
      ],
      "stateMutability": "nonpayable",
      "type": "constructor"
    },
    {
      "inputs": [
        {
          "internalType": "address",
          "name": "poolAddress",
          "type": "address"
        },
        {
          "internalType": "bool",
          "name": "zeroForOne",
          "type": "bool"
        },
        {
          "internalType": "int256",
          "name": "amountSpecified",
          "type": "int256"
        },
        {
          "internalType": "uint160",
          "name": "sqrtPriceLimitX96",
          "type": "uint160"
        }
      ],
      "name": "quote",
      "outputs": [
        {
          "internalType": "int256",
          "name": "amount0",
          "type": "int256"
        },
        {
          "internalType": "int256",
          "name": "amount1",
          "type": "int256"
        }
      ],
      "stateMutability": "view",
      "type": "function"
    },
    {
      "inputs": [
        {
          "internalType": "bytes",
          "name": "path",
          "type": "bytes"
        },
        {
          "internalType": "uint256",
          "name": "amountIn",
          "type": "uint256"
        }
      ],
      "name": "quoteExactInput",
      "outputs": [
        {
          "internalType": "uint256",
          "name": "amountOut",
          "type": "uint256"
        }
      ],
      "stateMutability": "view",
      "type": "function"
    },
    {
      "inputs": [
        {
          "components": [
            {
              "internalType": "address",
              "name": "tokenIn",
              "type": "address"
            },
            {
              "internalType": "address",
              "name": "tokenOut",
              "type": "address"
            },
            {
              "internalType": "uint256",
              "name": "amountIn",
              "type": "uint256"
            },
            {
              "internalType": "uint24",
              "name": "fee",
              "type": "uint24"
            },
            {
              "internalType": "uint160",
              "name": "sqrtPriceLimitX96",
              "type": "uint160"
            }
          ],
          "internalType": "struct IUniswapV3StaticQuoter.QuoteExactInputSingleParams",
          "name": "params",
          "type": "tuple"
        }
      ],
      "name": "quoteExactInputSingle",
      "outputs": [
        {
          "internalType": "uint256",
          "name": "amountOut",
          "type": "uint256"
        }
      ],
      "stateMutability": "view",
      "type": "function"
    }
  ],
  "transactionHash": "0x85715358d6b0bde31481d7c0756061962623a7fedf2534f05f94eea33669b5f1",
  "args": [
    "0x5F1dddbf348aC2fbe22a163e30F99F9ECE3DD50a"
  ],
  "numDeployments": 1,
  "solcInputHash": "55894718e9f87dd457ef75e89327981e",
  "bytecode": "0x60a06040523480156200001157600080fd5b50604051620026a9380380620026a983398101604081905262000034916200004a565b60601b6001600160601b0319166080526200007a565b6000602082840312156200005c578081fd5b81516001600160a01b038116811462000073578182fd5b9392505050565b60805160601c612611620000986000398061143252506126116000f3fe608060405234801561001057600080fd5b50600436106100415760003560e01c806390405d3614610046578063c6a5026a14610070578063cdca175314610090575b600080fd5b6100596100543660046123a9565b6100a3565b60405161006792919061256d565b60405180910390f35b61008361007e3660046124ab565b61043b565b60405161006791906125b2565b61008361009e3660046123ff565b610557565b6000808361011257604080517f08c379a000000000000000000000000000000000000000000000000000000000815260206004820152601e60248201527f616d6f756e745370656369666965642063616e6e6f74206265207a65726f0000604482015290519081900360640190fd5b61011a61232e565b84815285151560c082018190526000861360e08301819052141561013e888261062c565b600290810b810b608088015290810b900b606086015273ffffffffffffffffffffffffffffffffffffffff16604085018190526fffffffffffffffffffffffffffffffff91821661012086015291166101008401526101a09082908790610773565b60008873ffffffffffffffffffffffffffffffffffffffff1663c79a590e6040518163ffffffff1660e01b815260040160206040518083038186803b1580156101e857600080fd5b505afa1580156101fc573d6000803e3d6000fd5b505050506040513d602081101561021257600080fd5b505190505b82511580159061025757508573ffffffffffffffffffffffffffffffffffffffff16836040015173ffffffffffffffffffffffffffffffffffffffff1614155b1561040b57600061027184606001518560800151856108ac565b905061027c8161091b565b73ffffffffffffffffffffffffffffffffffffffff90811660a08601819052908816811184151514156102ac5750865b60008060006102f3886101200151896101000151016fffffffffffffffffffffffffffffffff168960400151868962ffffff168c600001518d60e001518e60c00151610cae565b73ffffffffffffffffffffffffffffffffffffffff1660408c01528a518390038b5260208b018051830190529194509250905061032f81610dfb565b61012089018051919091016fffffffffffffffffffffffffffffffff16905250505060a0850151604086015173ffffffffffffffffffffffffffffffffffffffff918216911614905061039b576103898460400151610e1a565b600290810b900b60608501525061040b565b826103a957600181036103ab565b805b600290810b810b6060860152608085015182820b910b146103cc5750610217565b6103e18a8560800151866101000151866111e6565b600290810b900b60808601526fffffffffffffffffffffffffffffffff1661010085015250610217565b8761041e5760208301518351880361042b565b8260000151870383602001515b909a909950975050505050505050565b60208101518151606083015160009273ffffffffffffffffffffffffffffffffffffffff8082169084161092849261047392906113f2565b905073ffffffffffffffffffffffffffffffffffffffff81166104cb576040517f08c379a00000000000000000000000000000000000000000000000000000000081526004016104c29061257b565b60405180910390fd5b60008061053483856104e089604001516114c3565b60808a015173ffffffffffffffffffffffffffffffffffffffff161561050a578960800151610054565b876105295773fffd8963efd1fc6a506488495d951d5263988d25610054565b6401000276a46100a3565b9150915083610546578160000361054b565b806000035b9450505050505b919050565b6000805b6000806000610569876114f5565b92509250925060006105e86040518060a001604052808673ffffffffffffffffffffffffffffffffffffffff1681526020018573ffffffffffffffffffffffffffffffffffffffff1681526020018981526020018462ffffff168152602001600073ffffffffffffffffffffffffffffffffffffffff1681525061043b565b965050600190930192856105fb88611526565b15610610576106098861152e565b975061061d565b8695505050505050610626565b5050505061055b565b92915050565b60008060008060008673ffffffffffffffffffffffffffffffffffffffff1663217ac2376040518163ffffffff1660e01b815260040160806040518083038186803b15801561067a57600080fd5b505afa15801561068e573d6000803e3d6000fd5b505050506040513d60808110156106a457600080fd5b508051602082015160409283015183517fab612f2b0000000000000000000000000000000000000000000000000000000081529351929650909450925073ffffffffffffffffffffffffffffffffffffffff89169163ab612f2b916004808301926060929190829003018186803b15801561071e57600080fd5b505afa158015610732573d6000803e3d6000fd5b505050506040513d606081101561074857600080fd5b50805160209091015190955093508515610769576107668782611563565b90505b9295509295909350565b6000836107d4578173ffffffffffffffffffffffffffffffffffffffff168373ffffffffffffffffffffffffffffffffffffffff161080156107cf57506401000276a373ffffffffffffffffffffffffffffffffffffffff8416115b610838565b8173ffffffffffffffffffffffffffffffffffffffff168373ffffffffffffffffffffffffffffffffffffffff16118015610838575073fffd8963efd1fc6a506488495d951d5263988d2673ffffffffffffffffffffffffffffffffffffffff8416105b9050806108a657604080517f08c379a000000000000000000000000000000000000000000000000000000000815260206004820152601c60248201527f7371727450726963654c696d6974206f7574206f6620626f756e647300000000604482015290519081900360640190fd5b50505050565b818180156108c35750836101e00160020b8160020b135b156108d357506101e08301610914565b811580156108ea57506101e0840360020b8160020b125b1561091457507ffffffffffffffffffffffffffffffffffffffffffffffffffffffffffffffe2083015b9392505050565b60008060008360020b12610932578260020b61093a565b8260020b6000035b9050620d89e88111156109ae57604080517f08c379a000000000000000000000000000000000000000000000000000000000815260206004820152600160248201527f5400000000000000000000000000000000000000000000000000000000000000604482015290519081900360640190fd5b6000600182166109cf577001000000000000000000000000000000006109e1565b6ffffcb933bd6fad37aa2d162d1a5940015b70ffffffffffffffffffffffffffffffffff1690506002821615610a15576ffff97272373d413259a46990580e213a0260801c5b6004821615610a34576ffff2e50f5f656932ef12357cf3c7fdcc0260801c5b6008821615610a53576fffe5caca7e10e4e61c3624eaa0941cd00260801c5b6010821615610a72576fffcb9843d60f6159c9db58835c9266440260801c5b6020821615610a91576fff973b41fa98c081472e6896dfb254c00260801c5b6040821615610ab0576fff2ea16466c96a3843ec78b326b528610260801c5b6080821615610acf576ffe5dee046a99a2a811c461f1969c30530260801c5b610100821615610aef576ffcbe86c7900a88aedcffc83b479aa3a40260801c5b610200821615610b0f576ff987a7253ac413176f2b074cf7815e540260801c5b610400821615610b2f576ff3392b0822b70005940c7a398e4b70f30260801c5b610800821615610b4f576fe7159475a2c29b7443b29c7fa6e889d90260801c5b611000821615610b6f576fd097f3bdfd2022b8845ad8f792aa58250260801c5b612000821615610b8f576fa9f746462d870fdf8a65dc1f90e061e50260801c5b614000821615610baf576f70d869a156d2a1b890bb3df62baf32f70260801c5b618000821615610bcf576f31be135f97d08fd981231505542fcfa60260801c5b62010000821615610bf0576f09aa508b5b7a84e1c677de54f3e99bc90260801c5b62020000821615610c10576e5d6af8dedb81196699c329225ee6040260801c5b62040000821615610c2f576d2216e584f5fa1ea926041bedfe980260801c5b62080000821615610c4c576b048a170391f7dc42444e8fa20260801c5b60008460020b1315610c8557807fffffffffffffffffffffffffffffffffffffffffffffffffffffffffffffffff81610c8157fe5b0490505b640100000000810615610c99576001610c9c565b60005b60ff16602082901c0192505050919050565b6000806000808873ffffffffffffffffffffffffffffffffffffffff168a73ffffffffffffffffffffffffffffffffffffffff161415610cf957506000925082915081905088610ded565b610d338b8b73ffffffffffffffffffffffffffffffffffffffff168b73ffffffffffffffffffffffffffffffffffffffff168b8a8a6115ee565b9350858015610d425750868412155b80610d56575085158015610d565750868413155b15610d6357869350610d66565b50875b600080851215610d7e57610d7985611733565b610d80565b845b905073ffffffffffffffffffffffffffffffffffffffff8216610dca57610dab818d8d8c8b8b61173a565b9250610dc3610dbe828e868f8c8c6118bc565b611a02565b9150610ddb565b610dd8818d8d858b8b611a25565b92505b610de98c8c84868b8b611b59565b9350505b975097509750979350505050565b806fffffffffffffffffffffffffffffffff8116811461055257600080fd5b60006401000276a373ffffffffffffffffffffffffffffffffffffffff831610801590610e70575073fffd8963efd1fc6a506488495d951d5263988d2673ffffffffffffffffffffffffffffffffffffffff8316105b610edb57604080517f08c379a000000000000000000000000000000000000000000000000000000000815260206004820152600160248201527f5200000000000000000000000000000000000000000000000000000000000000604482015290519081900360640190fd5b77ffffffffffffffffffffffffffffffffffffffff00000000602083901b166fffffffffffffffffffffffffffffffff811160071b81811c67ffffffffffffffff811160061b90811c63ffffffff811160051b90811c61ffff811160041b90811c60ff8111600390811b91821c600f811160021b90811c918211600190811b92831c97908811961790941790921717909117171760808110610f8557607f810383901c9150610f8f565b80607f0383901b91505b908002607f81811c60ff83811c9190911c800280831c81831c1c800280841c81841c1c800280851c81851c1c800280861c81861c1c800280871c81871c1c800280881c81881c1c800280891c81891c1c8002808a1c818a1c1c8002808b1c818b1c1c8002808c1c818c1c1c8002808d1c818d1c1c8002808e1c9c81901c9c909c1c80029c8d901c9e9d7fffffffffffffffffffffffffffffffffffffffffffffffffffffffffffffff808f0160401b60c09190911c678000000000000000161760c19b909b1c674000000000000000169a909a1760c29990991c672000000000000000169890981760c39790971c671000000000000000169690961760c49590951c670800000000000000169490941760c59390931c670400000000000000169290921760c69190911c670200000000000000161760c79190911c670100000000000000161760c89190911c6680000000000000161760c99190911c6640000000000000161760ca9190911c6620000000000000161760cb9190911c6610000000000000161760cc9190911c6608000000000000161760cd9190911c66040000000000001617693627a301d71055774c8581027ffffffffffffffffffffffffffffffffffd709b7e5480fba5a50fed5e62ffc5568101608090811d906fdb2df09e81959a81455e260799a0632f8301901d600281810b9083900b146111d7578873ffffffffffffffffffffffffffffffffffffffff166111ae8261091b565b73ffffffffffffffffffffffffffffffffffffffff1611156111d057816111d2565b805b6111d9565b815b9998505050505050505050565b60008060008673ffffffffffffffffffffffffffffffffffffffff1663f30dba93876040518263ffffffff1660e01b8152600401808260020b815260200191505060806040518083038186803b15801561123f57600080fd5b505afa158015611253573d6000803e3d6000fd5b505050506040513d608081101561126957600080fd5b50602001519050831561131857604080517fc0ac75cf000000000000000000000000000000000000000000000000000000008152600288900b6004820152815173ffffffffffffffffffffffffffffffffffffffff8a169263c0ac75cf9260248082019391829003018186803b1580156112e257600080fd5b505afa1580156112f6573d6000803e3d6000fd5b505050506040513d604081101561130c57600080fd5b506020015191506113b6565b604080517fc0ac75cf000000000000000000000000000000000000000000000000000000008152600288900b6004820152815173ffffffffffffffffffffffffffffffffffffffff8a169263c0ac75cf9260248082019391829003018186803b15801561138457600080fd5b505afa158015611398573d6000803e3d6000fd5b505050506040513d60408110156113ae57600080fd5b505191506000035b6113e685600083600f0b12156113d7576113d283600f0b611cc7565b6113d9565b825b600084600f0b1215611cdf565b92505094509492505050565b6040517f1698ee8200000000000000000000000000000000000000000000000000000000815260009073ffffffffffffffffffffffffffffffffffffffff7f00000000000000000000000000000000000000000000000000000000000000001690631698ee829061146b90879087908790600401612538565b60206040518083038186803b15801561148357600080fd5b505afa158015611497573d6000803e3d6000fd5b505050506040513d601f19601f820116820180604052508101906114bb919061238d565b949350505050565b60007f800000000000000000000000000000000000000000000000000000000000000082106114f157600080fd5b5090565b600080806115038482611cf4565b9250611510846014611df4565b905061151d846017611cf4565b91509193909250565b516042111590565b80516060906106269083906017907fffffffffffffffffffffffffffffffffffffffffffffffffffffffffffffffe901611ee4565b60008273ffffffffffffffffffffffffffffffffffffffff1663c0ac75cf836040518263ffffffff1660e01b8152600401808260020b8152602001915050604080518083038186803b1580156115b857600080fd5b505afa1580156115cc573d6000803e3d6000fd5b505050506040513d60408110156115e257600080fd5b50602001519392505050565b6000808587101561160157868603611605565b8587035b905083156116a557821561165e5760008786028762030d400203905060006116338a8462030d4002846120cb565b9050611655611650826c010000000000000000000000008c6120cb565b6114c3565b935050506116a0565b60008686028862030d4002039050600061167e8a8462030d4002846120cb565b905061169b611650828b6c010000000000000000000000006120cb565b935050505b611728565b82156116e75784860262030d4088020387860281036116c960608b901b82846120cb565b905061169b886116da83868d6120cb565b816116e157fe5b04612258565b84870262030d4087020386860281036117018a82846120cb565b905061172361171e82856c010000000000000000000000006120cb565b612258565b935050505b509695505050505050565b1960010190565b600082156117be5781156117815761177a73ffffffffffffffffffffffffffffffffffffffff86168886026e030d400000000000000000000000006120cb565b90506117b9565b6117b66c010000000000000000000000008589028773ffffffffffffffffffffffffffffffffffffffff1662030d40026120cb565b90505b6118b2565b83620186a081900387028782028902841561183f57611806620186a08b0273ffffffffffffffffffffffffffffffffffffffff8a166c010000000000000000000000006120cb565b82039150611838818973ffffffffffffffffffffffffffffffffffffffff166c010000000000000000000000006120cb565b90506118a7565b611872620186a08b026c0100000000000000000000000073ffffffffffffffffffffffffffffffffffffffff8b166120cb565b820391506118a4816c010000000000000000000000008a73ffffffffffffffffffffffffffffffffffffffff166120cb565b90505b61172383838361228d565b9695505050505050565b6000811561194e5760006118f4888673ffffffffffffffffffffffffffffffffffffffff166c010000000000000000000000006120cb565b90508315611929576119218688018673ffffffffffffffffffffffffffffffffffffffff16838a016122b1565b9150506118b2565b6119218688018673ffffffffffffffffffffffffffffffffffffffff16838a036120cb565b82156119ab576000611984886c010000000000000000000000008773ffffffffffffffffffffffffffffffffffffffff166120cb565b90506119218188018673ffffffffffffffffffffffffffffffffffffffff16888a016120cb565b60006119db886c010000000000000000000000008773ffffffffffffffffffffffffffffffffffffffff166120cb565b90506119218188038673ffffffffffffffffffffffffffffffffffffffff16888a016122b1565b8073ffffffffffffffffffffffffffffffffffffffff8116811461055257600080fd5b60008115611ac2576000611a5d876c010000000000000000000000008873ffffffffffffffffffffffffffffffffffffffff166120cb565b9050600084611a6e57888203611a72565b8882015b90506000611aa48773ffffffffffffffffffffffffffffffffffffffff16836c010000000000000000000000006120cb565b9050888111611ab4576000611ab8565b8881035b93505050506118b2565b6000611af2878773ffffffffffffffffffffffffffffffffffffffff166c010000000000000000000000006120cb565b9050600084611b0357888203611b07565b8882015b90506000611b39826c010000000000000000000000008973ffffffffffffffffffffffffffffffffffffffff166120cb565b9050888111611b49576000611723565b9790970398975050505050505050565b60008115611c40578215611bd357611b9a61171e8887890373ffffffffffffffffffffffffffffffffffffffff166c010000000000000000000000006120cb565b611bcb611650868873ffffffffffffffffffffffffffffffffffffffff166c010000000000000000000000006122b1565b019050611c3b565b611c066116508888880373ffffffffffffffffffffffffffffffffffffffff166c010000000000000000000000006122b1565b611c37611650868873ffffffffffffffffffffffffffffffffffffffff166c010000000000000000000000006122b1565b0190505b611ca8565b611c7161171e886c010000000000000000000000008973ffffffffffffffffffffffffffffffffffffffff166120cb565b611ca4611650868a016c010000000000000000000000008973ffffffffffffffffffffffffffffffffffffffff166122b1565b0190505b828015611cb55750806001145b156118b2575060009695505050505050565b6fffffffffffffffffffffffffffffffff0360010190565b600081611cee578284036114bb565b50500190565b600081826014011015611d6857604080517f08c379a000000000000000000000000000000000000000000000000000000000815260206004820152601260248201527f746f416464726573735f6f766572666c6f770000000000000000000000000000604482015290519081900360640190fd5b8160140183511015611ddb57604080517f08c379a000000000000000000000000000000000000000000000000000000000815260206004820152601560248201527f746f416464726573735f6f75744f66426f756e64730000000000000000000000604482015290519081900360640190fd5b5001602001516c01000000000000000000000000900490565b600081826003011015611e6857604080517f08c379a000000000000000000000000000000000000000000000000000000000815260206004820152601160248201527f746f55696e7432345f6f766572666c6f77000000000000000000000000000000604482015290519081900360640190fd5b8160030183511015611edb57604080517f08c379a000000000000000000000000000000000000000000000000000000000815260206004820152601460248201527f746f55696e7432345f6f75744f66426f756e6473000000000000000000000000604482015290519081900360640190fd5b50016003015190565b60608182601f011015611f5857604080517f08c379a000000000000000000000000000000000000000000000000000000000815260206004820152600e60248201527f736c6963655f6f766572666c6f77000000000000000000000000000000000000604482015290519081900360640190fd5b828284011015611fc957604080517f08c379a000000000000000000000000000000000000000000000000000000000815260206004820152600e60248201527f736c6963655f6f766572666c6f77000000000000000000000000000000000000604482015290519081900360640190fd5b8183018451101561203b57604080517f08c379a000000000000000000000000000000000000000000000000000000000815260206004820152601160248201527f736c6963655f6f75744f66426f756e6473000000000000000000000000000000604482015290519081900360640190fd5b60608215801561205a57604051915060008252602082016040526120c2565b6040519150601f8416801560200281840101858101878315602002848b0101015b8183101561209357805183526020928301920161207b565b5050858452601f017fffffffffffffffffffffffffffffffffffffffffffffffffffffffffffffffe016604052505b50949350505050565b600080807fffffffffffffffffffffffffffffffffffffffffffffffffffffffffffffffff85870986860292508281109083900303905080612181576000841161217657604080517f08c379a000000000000000000000000000000000000000000000000000000000815260206004820152600760248201527f302064656e6f6d00000000000000000000000000000000000000000000000000604482015290519081900360640190fd5b508290049050610914565b8084116121ef57604080517f08c379a000000000000000000000000000000000000000000000000000000000815260206004820152600e60248201527f64656e6f6d203c3d2070726f6431000000000000000000000000000000000000604482015290519081900360640190fd5b60008486880960026001871981018816978890046003810283188082028403028082028403028082028403028082028403028082028403029081029092039091026000889003889004909101858311909403939093029303949094049190911702949350505050565b60007f8000000000000000000000000000000000000000000000000000000000000000821061228657600080fd5b5060000390565b60008361229f838602858602036122dd565b8403816122a857fe5b04949350505050565b60006122be8484846120cb565b9050600082806122ca57fe5b8486091115610914576001019392505050565b60006003821115612320575080600160028204015b8181101561231a5780915060028182858161230957fe5b04018161231257fe5b0490506122f2565b50610552565b811561055257506001919050565b6040805161014081018252600080825260208201819052918101829052606081018290526080810182905260a0810182905260c0810182905260e08101829052610100810182905261012081019190915290565b8035610552816125df565b60006020828403121561239e578081fd5b8151610914816125df565b600080600080608085870312156123be578283fd5b84356123c9816125df565b9350602085013580151581146123dd578384fd5b92506040850135915060608501356123f4816125df565b939692955090935050565b60008060408385031215612411578182fd5b823567ffffffffffffffff80821115612428578384fd5b818501915085601f83011261243b578384fd5b813560208282111561244957fe5b612479817fffffffffffffffffffffffffffffffffffffffffffffffffffffffffffffffe0601f850116016125bb565b9250818352878183860101111561248e578586fd5b818185018285013790820181019490945295939092013593505050565b600060a082840312156124bc578081fd5b60405160a0810181811067ffffffffffffffff821117156124d957fe5b60405282356124e7816125df565b815260208301356124f7816125df565b602082015260408381013590820152606083013562ffffff8116811461251b578283fd5b606082015261252c60808401612382565b60808201529392505050565b73ffffffffffffffffffffffffffffffffffffffff938416815291909216602082015262ffffff909116604082015260600190565b918252602082015260400190565b6020808252600e908201527f506f6f6c206e6f7420666f756e64000000000000000000000000000000000000604082015260600190565b90815260200190565b60405181810167ffffffffffffffff811182821017156125d757fe5b604052919050565b73ffffffffffffffffffffffffffffffffffffffff8116811461260157600080fd5b5056fea164736f6c6343000706000a",
  "devdoc": {
    "kind": "dev",
    "methods": {
      "quoteExactInput(bytes,uint256)": {
        "params": {
          "amountIn": "The amount of the first token to swap",
          "path": "The path of the swap, i.e. each token pair and the pool fee"
        },
        "returns": {
          "amountOut": "The amount of the last token that would be received"
        }
      },
      "quoteExactInputSingle((address,address,uint256,uint24,uint160))": {
        "params": {
          "params": "The params for the quote, encoded as `QuoteExactInputSingleParams` tokenIn The token being swapped in tokenOut The token being swapped out fee The fee of the token pool to consider for the pair amountIn The desired input amount sqrtPriceLimitX96 The price limit of the pool that cannot be exceeded by the swap"
        },
        "returns": {
          "amountOut": "The amount of `tokenOut` that would be received"
        }
      }
    },
    "version": 1
  },
  "userdoc": {
    "kind": "user",
    "methods": {
      "quoteExactInput(bytes,uint256)": {
        "notice": "Returns the amount out received for a given exact input swap without executing the swap"
      },
      "quoteExactInputSingle((address,address,uint256,uint24,uint160))": {
        "notice": "Returns the amount out received for a given exact input but for a swap of a single pool"
      }
    },
    "version": 1
  },
  "storageLayout": {
    "storage": [],
    "types": null
  }
}