{
  "address": "0x7637Aaeb5BD58269B782726680d83f72C651aE74",
  "abi": [
    {
      "inputs": [
        {
          "internalType": "address",
          "name": "_factory",
          "type": "address"
        },
        {
          "internalType": "address",
          "name": "_WETH9",
          "type": "address"
        }
      ],
      "stateMutability": "nonpayable",
      "type": "constructor"
    },
    {
      "inputs": [],
      "name": "WETH9",
      "outputs": [
        {
          "internalType": "address",
          "name": "",
          "type": "address"
        }
      ],
      "stateMutability": "view",
      "type": "function"
    },
    {
      "inputs": [],
      "name": "factory",
      "outputs": [
        {
          "internalType": "address",
          "name": "",
          "type": "address"
        }
      ],
      "stateMutability": "view",
      "type": "function"
    },
    {
      "inputs": [
        {
          "internalType": "address",
          "name": "poolAddress",
          "type": "address"
        },
        {
          "internalType": "bool",
          "name": "zeroForOne",
          "type": "bool"
        },
        {
          "internalType": "int256",
          "name": "amountSpecified",
          "type": "int256"
        },
        {
          "internalType": "uint160",
          "name": "sqrtPriceLimitX96",
          "type": "uint160"
        }
      ],
      "name": "quote",
      "outputs": [
        {
          "internalType": "int256",
          "name": "amount0",
          "type": "int256"
        },
        {
          "internalType": "int256",
          "name": "amount1",
          "type": "int256"
        }
      ],
      "stateMutability": "view",
      "type": "function"
    },
    {
      "inputs": [
        {
          "internalType": "bytes",
          "name": "path",
          "type": "bytes"
        },
        {
          "internalType": "uint256",
          "name": "amountIn",
          "type": "uint256"
        }
      ],
      "name": "quoteExactInput",
      "outputs": [
        {
          "internalType": "uint256",
          "name": "amountOut",
          "type": "uint256"
        }
      ],
      "stateMutability": "view",
      "type": "function"
    },
    {
      "inputs": [
        {
          "components": [
            {
              "internalType": "address",
              "name": "tokenIn",
              "type": "address"
            },
            {
              "internalType": "address",
              "name": "tokenOut",
              "type": "address"
            },
            {
              "internalType": "uint256",
              "name": "amountIn",
              "type": "uint256"
            },
            {
              "internalType": "uint24",
              "name": "fee",
              "type": "uint24"
            },
            {
              "internalType": "uint160",
              "name": "sqrtPriceLimitX96",
              "type": "uint160"
            }
          ],
          "internalType": "struct IUniswapV3StaticQuoter.QuoteExactInputSingleParams",
          "name": "params",
          "type": "tuple"
        }
      ],
      "name": "quoteExactInputSingle",
      "outputs": [
        {
          "internalType": "uint256",
          "name": "amountOut",
          "type": "uint256"
        }
      ],
      "stateMutability": "view",
      "type": "function"
    }
  ],
  "transactionHash": "0xb34a2abe578e0e73d11be447c0961253268bbcdc42a094f592e1e1112e8d36b6",
  "args": [
    "0x1F98431c8aD98523631AE4a59f267346ea31F984",
    "0x4200000000000000000000000000000000000006"
  ],
  "numDeployments": 1,
  "solcInputHash": "40e429e57ff5c4e5ca9a90123d4b2647",
  "bytecode": "0x60c06040523480156200001157600080fd5b50604051620031af380380620031af833981016040819052620000349162000070565b6001600160601b0319606092831b8116608052911b1660a052620000a7565b80516001600160a01b03811681146200006b57600080fd5b919050565b6000806040838503121562000083578182fd5b6200008e8362000053565b91506200009e6020840162000053565b90509250929050565b60805160601c60a05160601c6130da620000d56000398060e8525080610b125280611d2f52506130da6000f3fe608060405234801561001057600080fd5b50600436106100675760003560e01c8063c45a015511610050578063c45a0155146100ab578063c6a5026a146100b3578063cdca1753146100d357610067565b80634aa4a4fc1461006c57806390405d361461008a575b600080fd5b6100746100e6565b6040516100819190612fa3565b60405180910390f35b61009d610098366004612c7c565b61010a565b604051610081929190612fe0565b610074610b10565b6100c66100c1366004612d94565b610b34565b604051610081919061305c565b6100c66100e1366004612cce565b610bfa565b7f000000000000000000000000000000000000000000000000000000000000000081565b600080858461014e576040517f08c379a000000000000000000000000000000000000000000000000000000000815260040161014590612fee565b60405180910390fd5b60008173ffffffffffffffffffffffffffffffffffffffff1663ddca3f436040518163ffffffff1660e01b815260040160206040518083038186803b15801561019657600080fd5b505afa1580156101aa573d6000803e3d6000fd5b505050506040513d601f19601f820116820180604052508101906101ce9190612f6f565b905060008273ffffffffffffffffffffffffffffffffffffffff1663d0c93a7c6040518163ffffffff1660e01b815260040160206040518083038186803b15801561021857600080fd5b505afa15801561022c573d6000803e3d6000fd5b505050506040513d601f19601f820116820180604052508101906102509190612d7a565b9050876102c85761026089610ccf565b73ffffffffffffffffffffffffffffffffffffffff168673ffffffffffffffffffffffffffffffffffffffff161180156102c3575073fffd8963efd1fc6a506488495d951d5263988d2673ffffffffffffffffffffffffffffffffffffffff8716105b610325565b6102d189610ccf565b73ffffffffffffffffffffffffffffffffffffffff168673ffffffffffffffffffffffffffffffffffffffff1610801561032557506401000276a373ffffffffffffffffffffffffffffffffffffffff8716115b61035b576040517f08c379a000000000000000000000000000000000000000000000000000000000815260040161014590613025565b60006040518060c001604052808a6103825760046103788d610d5e565b60ff16901c610399565b601061038d8d610d5e565b60ff168161039757fe5b065b60ff1681526020018573ffffffffffffffffffffffffffffffffffffffff16631a6865026040518163ffffffff1660e01b815260040160206040518083038186803b1580156103e757600080fd5b505afa1580156103fb573d6000803e3d6000fd5b505050506040513d601f19601f8201168201806040525081019061041f9190612e1c565b6fffffffffffffffffffffffffffffffff16815260200161043e610dec565b63ffffffff168152602001600060060b8152602001600073ffffffffffffffffffffffffffffffffffffffff1681526020016000151581525090506000808913905060006040518060e001604052808b8152602001600081526020016104a38e610ccf565b73ffffffffffffffffffffffffffffffffffffffff1681526020016104c78e610df0565b60020b81526020018c610557578773ffffffffffffffffffffffffffffffffffffffff1663461413196040518163ffffffff1660e01b815260040160206040518083038186803b15801561051a57600080fd5b505afa15801561052e573d6000803e3d6000fd5b505050506040513d601f19601f820116820180604052508101906105529190612f8b565b6105d5565b8773ffffffffffffffffffffffffffffffffffffffff1663f30583996040518163ffffffff1660e01b815260040160206040518083038186803b15801561059d57600080fd5b505afa1580156105b1573d6000803e3d6000fd5b505050506040513d601f19601f820116820180604052508101906105d59190612f8b565b815260200160006fffffffffffffffffffffffffffffffff16815260200184602001516fffffffffffffffffffffffffffffffff1681525090505b80511580159061065057508873ffffffffffffffffffffffffffffffffffffffff16816040015173ffffffffffffffffffffffffffffffffffffffff1614155b15610ad75761065d612bd1565b604082015173ffffffffffffffffffffffffffffffffffffffff168152606082015161068c908e90878f610e7f565b15156040830152600290810b810b602083018190527ffffffffffffffffffffffffffffffffffffffffffffffffffffffffffff27618910b12156106f5577ffffffffffffffffffffffffffffffffffffffffffffffffffffffffffff276186020820152610714565b6020810151620d89e860029190910b131561071457620d89e860208201525b6107218160200151611133565b73ffffffffffffffffffffffffffffffffffffffff16606082015260408201516107d3908d610782578b73ffffffffffffffffffffffffffffffffffffffff16836060015173ffffffffffffffffffffffffffffffffffffffff16116107b6565b8b73ffffffffffffffffffffffffffffffffffffffff16836060015173ffffffffffffffffffffffffffffffffffffffff16105b6107c45782606001516107c6565b8b5b60c085015185518a6114c6565b60c085015260a0840152608083015273ffffffffffffffffffffffffffffffffffffffff1660408301528215610842576108168160c001518260800151016116ec565b825103825260a08101516108389061082d906116ec565b60208401519061171e565b602083015261087d565b61084f8160a001516116ec565b825101825260c081015160808201516108779161086c91016116ec565b602084015190611734565b60208301525b835160ff16156108cc576000846000015160ff168260c001518161089d57fe5b60c0840180519290910491829003905260a0840180519091016fffffffffffffffffffffffffffffffff169052505b60c08201516fffffffffffffffffffffffffffffffff161561092a5761091e8160c001517001000000000000000000000000000000008460c001516fffffffffffffffffffffffffffffffff1661174a565b60808301805190910190525b806060015173ffffffffffffffffffffffffffffffffffffffff16826040015173ffffffffffffffffffffffffffffffffffffffff161415610a7c57806040015115610a535760208101516040517ff30dba9300000000000000000000000000000000000000000000000000000000815260009173ffffffffffffffffffffffffffffffffffffffff8a169163f30dba93916109c891600401612fd2565b6101006040518083038186803b1580156109e157600080fd5b505afa1580156109f5573d6000803e3d6000fd5b505050506040513d601f19601f82011682018060405250810190610a199190612e36565b5050505050509150508c15610a2c576000035b610a3a8360c0015182611818565b6fffffffffffffffffffffffffffffffff1660c0840152505b8b610a62578060200151610a6b565b60018160200151035b600290810b900b6060830152610ad1565b806000015173ffffffffffffffffffffffffffffffffffffffff16826040015173ffffffffffffffffffffffffffffffffffffffff1614610ad157610ac4826040015161195c565b600290810b900b60608301525b50610610565b8115158b151514610af057602081015181518b03610afd565b80600001518a0381602001515b909d909c509a5050505050505050505050565b7f000000000000000000000000000000000000000000000000000000000000000081565b60208101518151606083015160009273ffffffffffffffffffffffffffffffffffffffff80821690841610928492610b6c9290611d28565b9050600080610bd78385610b8389604001516116ec565b60808a015173ffffffffffffffffffffffffffffffffffffffff1615610bad578960800151610098565b87610bcc5773fffd8963efd1fc6a506488495d951d5263988d25610098565b6401000276a461010a565b9150915083610be95781600003610bee565b806000035b9450505050505b919050565b6000805b6000806000610c0c87611d66565b9250925092506000610c8b6040518060a001604052808673ffffffffffffffffffffffffffffffffffffffff1681526020018573ffffffffffffffffffffffffffffffffffffffff1681526020018981526020018462ffffff168152602001600073ffffffffffffffffffffffffffffffffffffffff16815250610b34565b96505060019093019285610c9e88611d97565b15610cb357610cac88611d9f565b9750610cc0565b8695505050505050610cc9565b50505050610bfe565b92915050565b6000808273ffffffffffffffffffffffffffffffffffffffff16633850c7bd6040518163ffffffff1660e01b815260040160e06040518083038186803b158015610d1857600080fd5b505afa158015610d2c573d6000803e3d6000fd5b505050506040513d601f19601f82011682018060405250810190610d509190612edc565b509498975050505050505050565b6000808273ffffffffffffffffffffffffffffffffffffffff16633850c7bd6040518163ffffffff1660e01b815260040160e06040518083038186803b158015610da757600080fd5b505afa158015610dbb573d6000803e3d6000fd5b505050506040513d601f19601f82011682018060405250810190610ddf9190612edc565b5098975050505050505050565b4290565b6000808273ffffffffffffffffffffffffffffffffffffffff16633850c7bd6040518163ffffffff1660e01b815260040160e06040518083038186803b158015610e3957600080fd5b505afa158015610e4d573d6000803e3d6000fd5b505050506040513d601f19601f82011682018060405250810190610e719190612edc565b509398975050505050505050565b6000808581600286810b9088900b81610e9457fe5b05905060008760020b128015610ebb57508560020b8760020b81610eb457fe5b0760020b15155b15610ee3577fffffffffffffffffffffffffffffffffffffffffffffffffffffffffffffffff015b841561100557600080610ef583611dd4565b6040517f5339c2960000000000000000000000000000000000000000000000000000000081529193509150600160ff83161b80017fffffffffffffffffffffffffffffffffffffffffffffffffffffffffffffffff0190600090829073ffffffffffffffffffffffffffffffffffffffff881690635339c29690610f7d908890600401612fc4565b60206040518083038186803b158015610f9557600080fd5b505afa158015610fa9573d6000803e3d6000fd5b505050506040513d601f19601f82011682018060405250810190610fcd9190612f8b565b168015159750905086610fe757898360ff16860302610ffa565b89610ff182611de6565b840360ff168603025b975050505050611128565b60008061101483600101611dd4565b6040517f5339c29600000000000000000000000000000000000000000000000000000000815291935091507fffffffffffffffffffffffffffffffffffffffffffffffffffffffffffffffff600160ff84161b011990600090829073ffffffffffffffffffffffffffffffffffffffff881690635339c2969061109b908890600401612fc4565b60206040518083038186803b1580156110b357600080fd5b505afa1580156110c7573d6000803e3d6000fd5b505050506040513d601f19601f820116820180604052508101906110eb9190612f8b565b16801515975090508661110b57898360ff0360ff16866001010102611121565b898361111683611e93565b0360ff168660010101025b9750505050505b505094509492505050565b60008060008360020b1261114a578260020b611152565b8260020b6000035b9050620d89e88111156111c657604080517f08c379a000000000000000000000000000000000000000000000000000000000815260206004820152600160248201527f5400000000000000000000000000000000000000000000000000000000000000604482015290519081900360640190fd5b6000600182166111e7577001000000000000000000000000000000006111f9565b6ffffcb933bd6fad37aa2d162d1a5940015b70ffffffffffffffffffffffffffffffffff169050600282161561122d576ffff97272373d413259a46990580e213a0260801c5b600482161561124c576ffff2e50f5f656932ef12357cf3c7fdcc0260801c5b600882161561126b576fffe5caca7e10e4e61c3624eaa0941cd00260801c5b601082161561128a576fffcb9843d60f6159c9db58835c9266440260801c5b60208216156112a9576fff973b41fa98c081472e6896dfb254c00260801c5b60408216156112c8576fff2ea16466c96a3843ec78b326b528610260801c5b60808216156112e7576ffe5dee046a99a2a811c461f1969c30530260801c5b610100821615611307576ffcbe86c7900a88aedcffc83b479aa3a40260801c5b610200821615611327576ff987a7253ac413176f2b074cf7815e540260801c5b610400821615611347576ff3392b0822b70005940c7a398e4b70f30260801c5b610800821615611367576fe7159475a2c29b7443b29c7fa6e889d90260801c5b611000821615611387576fd097f3bdfd2022b8845ad8f792aa58250260801c5b6120008216156113a7576fa9f746462d870fdf8a65dc1f90e061e50260801c5b6140008216156113c7576f70d869a156d2a1b890bb3df62baf32f70260801c5b6180008216156113e7576f31be135f97d08fd981231505542fcfa60260801c5b62010000821615611408576f09aa508b5b7a84e1c677de54f3e99bc90260801c5b62020000821615611428576e5d6af8dedb81196699c329225ee6040260801c5b62040000821615611447576d2216e584f5fa1ea926041bedfe980260801c5b62080000821615611464576b048a170391f7dc42444e8fa20260801c5b60008460020b131561149d57807fffffffffffffffffffffffffffffffffffffffffffffffffffffffffffffffff8161149957fe5b0490505b6401000000008106156114b15760016114b4565b60005b60ff16602082901c0192505050919050565b600080808073ffffffffffffffffffffffffffffffffffffffff808916908a16101581871280159061155857600061150c8989620f42400362ffffff16620f424061174a565b905082611525576115208c8c8c6001612076565b611532565b6115328b8d8c6001612147565b9550858110611543578a9650611552565b61154f8c8b838661225f565b96505b506115a2565b8161156f5761156a8b8b8b6000612147565b61157c565b61157c8a8c8b6000612076565b9350838860000310611590578995506115a2565b61159f8b8a8a600003856122c1565b95505b73ffffffffffffffffffffffffffffffffffffffff8a8116908716148215611612578080156115ce5750815b6115e4576115df878d8c6001612147565b6115e6565b855b95508080156115f3575081155b61160957611604878d8c6000612076565b61160b565b845b945061165c565b80801561161c5750815b6116325761162d8c888c6001612076565b611634565b855b9550808015611641575081155b611657576116528c888c6000612147565b611659565b845b94505b8115801561166c57508860000385115b15611678578860000394505b8180156116b157508a73ffffffffffffffffffffffffffffffffffffffff168773ffffffffffffffffffffffffffffffffffffffff1614155b156116c05785890393506116dd565b6116da868962ffffff168a620f42400362ffffff16612323565b93505b50505095509550955095915050565b60007f8000000000000000000000000000000000000000000000000000000000000000821061171a57600080fd5b5090565b80820382811315600083121514610cc957600080fd5b81810182811215600083121514610cc957600080fd5b600080807fffffffffffffffffffffffffffffffffffffffffffffffffffffffffffffffff8587098686029250828110908390030390508061179e576000841161179357600080fd5b508290049050611811565b8084116117aa57600080fd5b6000848688096000868103871696879004966002600389028118808a02820302808a02820302808a02820302808a02820302808a02820302808a02909103029181900381900460010186841190950394909402919094039290920491909117919091029150505b9392505050565b60008082600f0b12156118c457826fffffffffffffffffffffffffffffffff168260000384039150816fffffffffffffffffffffffffffffffff16106118bf57604080517f08c379a000000000000000000000000000000000000000000000000000000000815260206004820152600260248201527f4c53000000000000000000000000000000000000000000000000000000000000604482015290519081900360640190fd5b610cc9565b826fffffffffffffffffffffffffffffffff168284019150816fffffffffffffffffffffffffffffffff161015610cc957604080517f08c379a000000000000000000000000000000000000000000000000000000000815260206004820152600260248201527f4c41000000000000000000000000000000000000000000000000000000000000604482015290519081900360640190fd5b60006401000276a373ffffffffffffffffffffffffffffffffffffffff8316108015906119b2575073fffd8963efd1fc6a506488495d951d5263988d2673ffffffffffffffffffffffffffffffffffffffff8316105b611a1d57604080517f08c379a000000000000000000000000000000000000000000000000000000000815260206004820152600160248201527f5200000000000000000000000000000000000000000000000000000000000000604482015290519081900360640190fd5b77ffffffffffffffffffffffffffffffffffffffff00000000602083901b166fffffffffffffffffffffffffffffffff811160071b81811c67ffffffffffffffff811160061b90811c63ffffffff811160051b90811c61ffff811160041b90811c60ff8111600390811b91821c600f811160021b90811c918211600190811b92831c97908811961790941790921717909117171760808110611ac757607f810383901c9150611ad1565b80607f0383901b91505b908002607f81811c60ff83811c9190911c800280831c81831c1c800280841c81841c1c800280851c81851c1c800280861c81861c1c800280871c81871c1c800280881c81881c1c800280891c81891c1c8002808a1c818a1c1c8002808b1c818b1c1c8002808c1c818c1c1c8002808d1c818d1c1c8002808e1c9c81901c9c909c1c80029c8d901c9e9d7fffffffffffffffffffffffffffffffffffffffffffffffffffffffffffffff808f0160401b60c09190911c678000000000000000161760c19b909b1c674000000000000000169a909a1760c29990991c672000000000000000169890981760c39790971c671000000000000000169690961760c49590951c670800000000000000169490941760c59390931c670400000000000000169290921760c69190911c670200000000000000161760c79190911c670100000000000000161760c89190911c6680000000000000161760c99190911c6640000000000000161760ca9190911c6620000000000000161760cb9190911c6610000000000000161760cc9190911c6608000000000000161760cd9190911c66040000000000001617693627a301d71055774c8581027ffffffffffffffffffffffffffffffffffd709b7e5480fba5a50fed5e62ffc5568101608090811d906fdb2df09e81959a81455e260799a0632f8301901d600281810b9083900b14611d19578873ffffffffffffffffffffffffffffffffffffffff16611cf082611133565b73ffffffffffffffffffffffffffffffffffffffff161115611d125781611d14565b805b611d1b565b815b9998505050505050505050565b6000611d5e7f0000000000000000000000000000000000000000000000000000000000000000611d5986868661237b565b6123f8565b949350505050565b60008080611d74848261252e565b9250611d8184601461262e565b9050611d8e84601761252e565b91509193909250565b516042111590565b8051606090610cc99083906017907fffffffffffffffffffffffffffffffffffffffffffffffffffffffffffffffe90161271e565b60020b600881901d9161010090910790565b6000808211611df457600080fd5b7001000000000000000000000000000000008210611e1457608091821c91015b680100000000000000008210611e2c57604091821c91015b6401000000008210611e4057602091821c91015b620100008210611e5257601091821c91015b6101008210611e6357600891821c91015b60108210611e7357600491821c91015b60048210611e8357600291821c91015b60028210610bf557600101919050565b6000808211611ea157600080fd5b5060ff6fffffffffffffffffffffffffffffffff821615611ee3577fffffffffffffffffffffffffffffffffffffffffffffffffffffffffffffff8001611eeb565b608082901c91505b67ffffffffffffffff821615611f22577fffffffffffffffffffffffffffffffffffffffffffffffffffffffffffffffc001611f2a565b604082901c91505b63ffffffff821615611f5d577fffffffffffffffffffffffffffffffffffffffffffffffffffffffffffffffe001611f65565b602082901c91505b61ffff821615611f96577ffffffffffffffffffffffffffffffffffffffffffffffffffffffffffffffff001611f9e565b601082901c91505b60ff821615611fce577ffffffffffffffffffffffffffffffffffffffffffffffffffffffffffffffff801611fd6565b600882901c91505b600f821615612006577ffffffffffffffffffffffffffffffffffffffffffffffffffffffffffffffffc0161200e565b600482901c91505b600382161561203e577ffffffffffffffffffffffffffffffffffffffffffffffffffffffffffffffffe01612046565b600282901c91505b6001821615610bf5577fffffffffffffffffffffffffffffffffffffffffffffffffffffffffffffffff01919050565b60008373ffffffffffffffffffffffffffffffffffffffff168573ffffffffffffffffffffffffffffffffffffffff1611156120b0579293925b816120fc576120f7836fffffffffffffffffffffffffffffffff1686860373ffffffffffffffffffffffffffffffffffffffff166c0100000000000000000000000061174a565b61213e565b61213e836fffffffffffffffffffffffffffffffff1686860373ffffffffffffffffffffffffffffffffffffffff166c01000000000000000000000000612323565b95945050505050565b60008373ffffffffffffffffffffffffffffffffffffffff168573ffffffffffffffffffffffffffffffffffffffff161115612181579293925b7bffffffffffffffffffffffffffffffff000000000000000000000000606084901b1673ffffffffffffffffffffffffffffffffffffffff86860381169087166121ca57600080fd5b83612214578673ffffffffffffffffffffffffffffffffffffffff1661220783838973ffffffffffffffffffffffffffffffffffffffff1661174a565b8161220e57fe5b04612254565b61225461223883838973ffffffffffffffffffffffffffffffffffffffff16612323565b8873ffffffffffffffffffffffffffffffffffffffff16612905565b979650505050505050565b6000808573ffffffffffffffffffffffffffffffffffffffff161161228357600080fd5b6000846fffffffffffffffffffffffffffffffff16116122a257600080fd5b816122b4576120f78585856001612910565b61213e8585856001612a68565b6000808573ffffffffffffffffffffffffffffffffffffffff16116122e557600080fd5b6000846fffffffffffffffffffffffffffffffff161161230457600080fd5b81612316576120f78585856000612a68565b61213e8585856000612910565b600061233084848461174a565b90506000828061233c57fe5b8486091115611811577fffffffffffffffffffffffffffffffffffffffffffffffffffffffffffffffff811061237157600080fd5b6001019392505050565b612383612c0d565b8273ffffffffffffffffffffffffffffffffffffffff168473ffffffffffffffffffffffffffffffffffffffff1611156123bb579192915b506040805160608101825273ffffffffffffffffffffffffffffffffffffffff948516815292909316602083015262ffffff169181019190915290565b6000816020015173ffffffffffffffffffffffffffffffffffffffff16826000015173ffffffffffffffffffffffffffffffffffffffff161061243a57600080fd5b508051602080830151604093840151845173ffffffffffffffffffffffffffffffffffffffff94851681850152939091168385015262ffffff166060808401919091528351808403820181526080840185528051908301207fff0000000000000000000000000000000000000000000000000000000000000060a085015294901b7fffffffffffffffffffffffffffffffffffffffff0000000000000000000000001660a183015260b58201939093527fe34f199b19b2b4f47f68442619d555527d244f78a3297ea89325f843f87b8b5460d5808301919091528251808303909101815260f5909101909152805191012090565b6000818260140110156125a257604080517f08c379a000000000000000000000000000000000000000000000000000000000815260206004820152601260248201527f746f416464726573735f6f766572666c6f770000000000000000000000000000604482015290519081900360640190fd5b816014018351101561261557604080517f08c379a000000000000000000000000000000000000000000000000000000000815260206004820152601560248201527f746f416464726573735f6f75744f66426f756e64730000000000000000000000604482015290519081900360640190fd5b5001602001516c01000000000000000000000000900490565b6000818260030110156126a257604080517f08c379a000000000000000000000000000000000000000000000000000000000815260206004820152601160248201527f746f55696e7432345f6f766572666c6f77000000000000000000000000000000604482015290519081900360640190fd5b816003018351101561271557604080517f08c379a000000000000000000000000000000000000000000000000000000000815260206004820152601460248201527f746f55696e7432345f6f75744f66426f756e6473000000000000000000000000604482015290519081900360640190fd5b50016003015190565b60608182601f01101561279257604080517f08c379a000000000000000000000000000000000000000000000000000000000815260206004820152600e60248201527f736c6963655f6f766572666c6f77000000000000000000000000000000000000604482015290519081900360640190fd5b82828401101561280357604080517f08c379a000000000000000000000000000000000000000000000000000000000815260206004820152600e60248201527f736c6963655f6f766572666c6f77000000000000000000000000000000000000604482015290519081900360640190fd5b8183018451101561287557604080517f08c379a000000000000000000000000000000000000000000000000000000000815260206004820152601160248201527f736c6963655f6f75744f66426f756e6473000000000000000000000000000000604482015290519081900360640190fd5b60608215801561289457604051915060008252602082016040526128fc565b6040519150601f8416801560200281840101858101878315602002848b0101015b818310156128cd5780518352602092830192016128b5565b5050858452601f017fffffffffffffffffffffffffffffffffffffffffffffffffffffffffffffffe016604052505b50949350505050565b808204910615150190565b600081156129b857600073ffffffffffffffffffffffffffffffffffffffff84111561296557612960846c01000000000000000000000000876fffffffffffffffffffffffffffffffff1661174a565b612986565b6fffffffffffffffffffffffffffffffff8516606085901b8161298457fe5b045b90506129b06129ab73ffffffffffffffffffffffffffffffffffffffff881683612b9e565b612bae565b915050611d5e565b600073ffffffffffffffffffffffffffffffffffffffff841115612a0557612a00846c01000000000000000000000000876fffffffffffffffffffffffffffffffff16612323565b612a25565b612a25606085901b6fffffffffffffffffffffffffffffffff8716612905565b9050808673ffffffffffffffffffffffffffffffffffffffff1611612a4957600080fd5b73ffffffffffffffffffffffffffffffffffffffff8616039050611d5e565b600082612a76575083611d5e565b7bffffffffffffffffffffffffffffffff000000000000000000000000606085901b168215612b3d5773ffffffffffffffffffffffffffffffffffffffff861684810290858281612ac357fe5b041415612b0157818101828110612aff57612af5838973ffffffffffffffffffffffffffffffffffffffff1683612323565b9350505050611d5e565b505b612b3482612b2f878a73ffffffffffffffffffffffffffffffffffffffff168681612b2857fe5b0490612b9e565b612905565b92505050611d5e565b73ffffffffffffffffffffffffffffffffffffffff861684810290858281612b6157fe5b04148015612b6e57508082115b612b7757600080fd5b808203612af56129ab8473ffffffffffffffffffffffffffffffffffffffff8b1684612323565b80820182811015610cc957600080fd5b8073ffffffffffffffffffffffffffffffffffffffff81168114610bf557600080fd5b6040805160e081018252600080825260208201819052918101829052606081018290526080810182905260a0810182905260c081019190915290565b604080516060810182526000808252602082018190529181019190915290565b8051610bf5816130ae565b8051600281900b8114610bf557600080fd5b80516fffffffffffffffffffffffffffffffff81168114610bf557600080fd5b805161ffff81168114610bf557600080fd5b60008060008060808587031215612c91578384fd5b8435612c9c81613089565b93506020850135612cac816130ae565b9250604085013591506060850135612cc381613089565b939692955090935050565b60008060408385031215612ce0578182fd5b823567ffffffffffffffff80821115612cf7578384fd5b818501915085601f830112612d0a578384fd5b8135602082821115612d1857fe5b612d48817fffffffffffffffffffffffffffffffffffffffffffffffffffffffffffffffe0601f85011601613065565b92508183528781838601011115612d5d578586fd5b818185018285013790820181019490945295939092013593505050565b600060208284031215612d8b578081fd5b61181182612c38565b600060a08284031215612da5578081fd5b60405160a0810181811067ffffffffffffffff82111715612dc257fe5b6040528235612dd081613089565b81526020830135612de081613089565b6020820152604083810135908201526060830135612dfd816130bc565b60608201526080830135612e1081613089565b60808201529392505050565b600060208284031215612e2d578081fd5b61181182612c4a565b600080600080600080600080610100898b031215612e52578384fd5b612e5b89612c4a565b9750602089015180600f0b8114612e70578485fd5b80975050604089015195506060890151945060808901518060060b8114612e95578485fd5b60a08a0151909450612ea681613089565b60c08a015190935063ffffffff81168114612ebf578283fd5b9150612ecd60e08a01612c2d565b90509295985092959890939650565b600080600080600080600060e0888a031215612ef6578081fd5b8751612f0181613089565b9650612f0f60208901612c38565b9550612f1d60408901612c6a565b9450612f2b60608901612c6a565b9350612f3960808901612c6a565b925060a088015160ff81168114612f4e578182fd5b60c0890151909250612f5f816130ae565b8091505092959891949750929550565b600060208284031215612f80578081fd5b8151611811816130bc565b600060208284031215612f9c578081fd5b5051919050565b73ffffffffffffffffffffffffffffffffffffffff91909116815260200190565b60019190910b815260200190565b60029190910b815260200190565b918252602082015260400190565b60208082526002908201527f4153000000000000000000000000000000000000000000000000000000000000604082015260600190565b60208082526003908201527f53504c0000000000000000000000000000000000000000000000000000000000604082015260600190565b90815260200190565b60405181810167ffffffffffffffff8111828210171561308157fe5b604052919050565b73ffffffffffffffffffffffffffffffffffffffff811681146130ab57600080fd5b50565b80151581146130ab57600080fd5b62ffffff811681146130ab57600080fdfea164736f6c6343000706000a",
  "devdoc": {
    "kind": "dev",
    "methods": {
      "quoteExactInput(bytes,uint256)": {
        "params": {
          "amountIn": "The amount of the first token to swap",
          "path": "The path of the swap, i.e. each token pair and the pool fee"
        },
        "returns": {
          "amountOut": "The amount of the last token that would be received"
        }
      },
      "quoteExactInputSingle((address,address,uint256,uint24,uint160))": {
        "params": {
          "params": "The params for the quote, encoded as `QuoteExactInputSingleParams` tokenIn The token being swapped in tokenOut The token being swapped out fee The fee of the token pool to consider for the pair amountIn The desired input amount sqrtPriceLimitX96 The price limit of the pool that cannot be exceeded by the swap"
        },
        "returns": {
          "amountOut": "The amount of `tokenOut` that would be received"
        }
      }
    },
    "version": 1
  },
  "userdoc": {
    "kind": "user",
    "methods": {
      "quoteExactInput(bytes,uint256)": {
        "notice": "Returns the amount out received for a given exact input swap without executing the swap"
      },
      "quoteExactInputSingle((address,address,uint256,uint24,uint160))": {
        "notice": "Returns the amount out received for a given exact input but for a swap of a single pool"
      }
    },
    "version": 1
  },
  "storageLayout": {
    "storage": [],
    "types": null
  }
}