{
  "address": "0xc15804984E3e77B7f8A60E4553e2289c5fdeAe8B",
  "abi": [
    {
      "inputs": [
        {
          "internalType": "address",
          "name": "_factory",
          "type": "address"
        }
      ],
      "stateMutability": "nonpayable",
      "type": "constructor"
    },
    {
      "inputs": [
        {
          "internalType": "address",
          "name": "poolAddress",
          "type": "address"
        },
        {
          "internalType": "bool",
          "name": "zeroForOne",
          "type": "bool"
        },
        {
          "internalType": "int256",
          "name": "amountSpecified",
          "type": "int256"
        },
        {
          "internalType": "uint160",
          "name": "sqrtPriceLimitX96",
          "type": "uint160"
        }
      ],
      "name": "quote",
      "outputs": [
        {
          "internalType": "int256",
          "name": "amount0",
          "type": "int256"
        },
        {
          "internalType": "int256",
          "name": "amount1",
          "type": "int256"
        }
      ],
      "stateMutability": "view",
      "type": "function"
    },
    {
      "inputs": [
        {
          "internalType": "bytes",
          "name": "path",
          "type": "bytes"
        },
        {
          "internalType": "uint256",
          "name": "amountIn",
          "type": "uint256"
        }
      ],
      "name": "quoteExactInput",
      "outputs": [
        {
          "internalType": "uint256",
          "name": "amountOut",
          "type": "uint256"
        }
      ],
      "stateMutability": "view",
      "type": "function"
    },
    {
      "inputs": [
        {
          "components": [
            {
              "internalType": "address",
              "name": "tokenIn",
              "type": "address"
            },
            {
              "internalType": "address",
              "name": "tokenOut",
              "type": "address"
            },
            {
              "internalType": "uint256",
              "name": "amountIn",
              "type": "uint256"
            },
            {
              "internalType": "uint24",
              "name": "fee",
              "type": "uint24"
            },
            {
              "internalType": "uint160",
              "name": "sqrtPriceLimitX96",
              "type": "uint160"
            }
          ],
          "internalType": "struct IUniswapV3StaticQuoter.QuoteExactInputSingleParams",
          "name": "params",
          "type": "tuple"
        }
      ],
      "name": "quoteExactInputSingle",
      "outputs": [
        {
          "internalType": "uint256",
          "name": "amountOut",
          "type": "uint256"
        }
      ],
      "stateMutability": "view",
      "type": "function"
    }
  ],
  "transactionHash": "0x22e89e873868a5a8af02e03ad24d294928ac7d665f22e27e1e61bbfe30903d3e",
  "args": [
    "0x740b1c1de25031C31FF4fC9A62f554A55cdC1baD"
  ],
  "numDeployments": 1,
  "solcInputHash": "b114f1a83d51911d7a217e1f65fcbe3e",
  "bytecode": "0x60a06040523480156200001157600080fd5b5060405162002bb438038062002bb483398101604081905262000034916200004a565b60601b6001600160601b0319166080526200007a565b6000602082840312156200005c578081fd5b81516001600160a01b038116811462000073578182fd5b9392505050565b60805160601c612b1c6200009860003980610fc25250612b1c6000f3fe608060405234801561001057600080fd5b50600436106100415760003560e01c806390405d3614610046578063c6a5026a14610070578063cdca175314610090575b600080fd5b610059610054366004612920565b6100a3565b604051610067929190612aaf565b60405180910390f35b61008361007e366004612a22565b6103f9565b6040516100679190612abd565b61008361009e366004612976565b6104bf565b6000808361011257604080517f08c379a000000000000000000000000000000000000000000000000000000000815260206004820152601e60248201527f616d6f756e745370656369666965642063616e6e6f74206265207a65726f0000604482015290519081900360640190fd5b60008085139080806101268a8a8a8a610594565b9250925092505b80511580159061016d57508673ffffffffffffffffffffffffffffffffffffffff16816040015173ffffffffffffffffffffffffffffffffffffffff1614155b156103c25761017a61288b565b604082015173ffffffffffffffffffffffffffffffffffffffff16815260608201516101a9908c90868d61063d565b73ffffffffffffffffffffffffffffffffffffffff1660608401819052901515604080850191909152600292830b90920b602084015290830151610204916101f3908d908c6106d2565b6080850151855161ffff8816610753565b60c085015260a0840152608083015273ffffffffffffffffffffffffffffffffffffffff1660408301528415610273576102478160c00151826080015101610979565b825103825260a08101516102699061025e90610979565b6020840151906109ab565b60208301526102ae565b6102808160a00151610979565b825101825260c081015160808201516102a89161029d9101610979565b6020840151906109c1565b60208301525b806060015173ffffffffffffffffffffffffffffffffffffffff16826040015173ffffffffffffffffffffffffffffffffffffffff1614156103675780604001511561033e5760006103048c83602001516109d7565b5050505050509150508a15610317576000035b610325836080015182610aab565b6fffffffffffffffffffffffffffffffff166080840152505b8961034d578060200151610356565b60018160200151035b600290810b900b60608301526103bc565b806000015173ffffffffffffffffffffffffffffffffffffffff16826040015173ffffffffffffffffffffffffffffffffffffffff16146103bc576103af8260400151610bef565b600290810b900b60608301525b5061012d565b831515891515146103db576020810151815189036103e8565b8060000151880381602001515b909b909a5098505050505050505050565b60208101518151606083015160009273ffffffffffffffffffffffffffffffffffffffff808216908416109284926104319290610fbb565b905060008061049c83856104488960400151610979565b60808a015173ffffffffffffffffffffffffffffffffffffffff1615610472578960800151610054565b876104915773fffd8963efd1fc6a506488495d951d5263988d25610054565b6401000276a46100a3565b91509150836104ae57816000036104b3565b806000035b9450505050505b919050565b6000805b60008060006104d187610ff1565b92509250925060006105506040518060a001604052808673ffffffffffffffffffffffffffffffffffffffff1681526020018573ffffffffffffffffffffffffffffffffffffffff1681526020018981526020018462ffffff168152602001600073ffffffffffffffffffffffffffffffffffffffff168152506103f9565b9650506001909301928561056388611022565b15610578576105718861102a565b9750610585565b869550505050505061058e565b505050506104c3565b92915050565b60008061059f6128c7565b60006105aa8861105f565b90506105bb878683600001516111a8565b6105c4886112e1565b9350806040015192506040518060a0016040528087815260200160008152602001826000015173ffffffffffffffffffffffffffffffffffffffff168152602001826020015160020b815260200161061b8a61135b565b6fffffffffffffffffffffffffffffffff168152509150509450945094915050565b600080600061064e878787876113a3565b90935091507ffffffffffffffffffffffffffffffffffffffffffffffffffffffffffff27618600284900b12156106a7577ffffffffffffffffffffffffffffffffffffffffffffffffffffffffffff2761892506106bd565b620d89e8600284900b13156106bd57620d89e892505b6106c6836113bf565b90509450945094915050565b60008361070d578173ffffffffffffffffffffffffffffffffffffffff168373ffffffffffffffffffffffffffffffffffffffff161161073d565b8173ffffffffffffffffffffffffffffffffffffffff168373ffffffffffffffffffffffffffffffffffffffff16105b6107475782610749565b815b90505b9392505050565b600080808073ffffffffffffffffffffffffffffffffffffffff808916908a1610158187128015906107e55760006107998989620f42400362ffffff16620f4240611752565b9050826107b2576107ad8c8c8c600161181f565b6107bf565b6107bf8b8d8c60016118f2565b95508581106107d0578a96506107df565b6107dc8c8b8386611a0a565b96505b5061082f565b816107fc576107f78b8b8b60006118f2565b610809565b6108098a8c8b600061181f565b935083886000031061081d5789955061082f565b61082c8b8a8a60000385611a6c565b95505b73ffffffffffffffffffffffffffffffffffffffff8a811690871614821561089f5780801561085b5750815b6108715761086c878d8c60016118f2565b610873565b855b9550808015610880575081155b61089657610891878d8c600061181f565b610898565b845b94506108e9565b8080156108a95750815b6108bf576108ba8c888c600161181f565b6108c1565b855b95508080156108ce575081155b6108e4576108df8c888c60006118f2565b6108e6565b845b94505b811580156108f957508860000385115b15610905578860000394505b81801561093e57508a73ffffffffffffffffffffffffffffffffffffffff168773ffffffffffffffffffffffffffffffffffffffff1614155b1561094d57858903935061096a565b610967868962ffffff168a620f42400362ffffff16611ace565b93505b50505095509550955095915050565b60007f800000000000000000000000000000000000000000000000000000000000000082106109a757600080fd5b5090565b8082038281131560008312151461058e57600080fd5b8181018281121560008312151461058e57600080fd5b6000806000806000806000808973ffffffffffffffffffffffffffffffffffffffff1663f30dba938a6040518263ffffffff1660e01b8152600401808260020b81526020019150506101006040518083038186803b158015610a3857600080fd5b505afa158015610a4c573d6000803e3d6000fd5b505050506040513d610100811015610a6357600080fd5b508051602082015160408301516060840151608085015160a086015160c087015160e090970151959e50939c50919a5098509650945090925090509295985092959890939650565b60008082600f0b1215610b5757826fffffffffffffffffffffffffffffffff168260000384039150816fffffffffffffffffffffffffffffffff1610610b5257604080517f08c379a000000000000000000000000000000000000000000000000000000000815260206004820152600260248201527f4c53000000000000000000000000000000000000000000000000000000000000604482015290519081900360640190fd5b61058e565b826fffffffffffffffffffffffffffffffff168284019150816fffffffffffffffffffffffffffffffff16101561058e57604080517f08c379a000000000000000000000000000000000000000000000000000000000815260206004820152600260248201527f4c41000000000000000000000000000000000000000000000000000000000000604482015290519081900360640190fd5b60006401000276a373ffffffffffffffffffffffffffffffffffffffff831610801590610c45575073fffd8963efd1fc6a506488495d951d5263988d2673ffffffffffffffffffffffffffffffffffffffff8316105b610cb057604080517f08c379a000000000000000000000000000000000000000000000000000000000815260206004820152600160248201527f5200000000000000000000000000000000000000000000000000000000000000604482015290519081900360640190fd5b77ffffffffffffffffffffffffffffffffffffffff00000000602083901b166fffffffffffffffffffffffffffffffff811160071b81811c67ffffffffffffffff811160061b90811c63ffffffff811160051b90811c61ffff811160041b90811c60ff8111600390811b91821c600f811160021b90811c918211600190811b92831c97908811961790941790921717909117171760808110610d5a57607f810383901c9150610d64565b80607f0383901b91505b908002607f81811c60ff83811c9190911c800280831c81831c1c800280841c81841c1c800280851c81851c1c800280861c81861c1c800280871c81871c1c800280881c81881c1c800280891c81891c1c8002808a1c818a1c1c8002808b1c818b1c1c8002808c1c818c1c1c8002808d1c818d1c1c8002808e1c9c81901c9c909c1c80029c8d901c9e9d7fffffffffffffffffffffffffffffffffffffffffffffffffffffffffffffff808f0160401b60c09190911c678000000000000000161760c19b909b1c674000000000000000169a909a1760c29990991c672000000000000000169890981760c39790971c671000000000000000169690961760c49590951c670800000000000000169490941760c59390931c670400000000000000169290921760c69190911c670200000000000000161760c79190911c670100000000000000161760c89190911c6680000000000000161760c99190911c6640000000000000161760ca9190911c6620000000000000161760cb9190911c6610000000000000161760cc9190911c6608000000000000161760cd9190911c66040000000000001617693627a301d71055774c8581027ffffffffffffffffffffffffffffffffffd709b7e5480fba5a50fed5e62ffc5568101608090811d906fdb2df09e81959a81455e260799a0632f8301901d600281810b9083900b14610fac578873ffffffffffffffffffffffffffffffffffffffff16610f83826113bf565b73ffffffffffffffffffffffffffffffffffffffff161115610fa55781610fa7565b805b610fae565b815b9998505050505050505050565b60006107497f0000000000000000000000000000000000000000000000000000000000000000610fec868686611b26565b611ba3565b60008080610fff8482611cd9565b925061100c846014611dd9565b9050611019846017611cd9565b91509193909250565b516042111590565b805160609061058e9083906017907fffffffffffffffffffffffffffffffffffffffffffffffffffffffffffffffe901611ec9565b6110676128f5565b8173ffffffffffffffffffffffffffffffffffffffff1663ddca3f436040518163ffffffff1660e01b815260040160206040518083038186803b1580156110ad57600080fd5b505afa1580156110c1573d6000803e3d6000fd5b505050506040513d60208110156110d757600080fd5b505161ffff1660408083019190915280517f3850c7bd000000000000000000000000000000000000000000000000000000008152905173ffffffffffffffffffffffffffffffffffffffff841691633850c7bd9160048083019260e0929190829003018186803b15801561114a57600080fd5b505afa15801561115e573d6000803e3d6000fd5b505050506040513d60e081101561117457600080fd5b508051602091820151600290810b900b9183019190915273ffffffffffffffffffffffffffffffffffffffff168152919050565b600083611218578173ffffffffffffffffffffffffffffffffffffffff168373ffffffffffffffffffffffffffffffffffffffff16118015611213575073fffd8963efd1fc6a506488495d951d5263988d2673ffffffffffffffffffffffffffffffffffffffff8416105b61126d565b8173ffffffffffffffffffffffffffffffffffffffff168373ffffffffffffffffffffffffffffffffffffffff1610801561126d57506401000276a373ffffffffffffffffffffffffffffffffffffffff8416115b9050806112db57604080517f08c379a000000000000000000000000000000000000000000000000000000000815260206004820152601c60248201527f7371727450726963654c696d6974206f7574206f6620626f756e647300000000604482015290519081900360640190fd5b50505050565b60008173ffffffffffffffffffffffffffffffffffffffff1663d0c93a7c6040518163ffffffff1660e01b815260040160206040518083038186803b15801561132957600080fd5b505afa15801561133d573d6000803e3d6000fd5b505050506040513d602081101561135357600080fd5b505192915050565b60008173ffffffffffffffffffffffffffffffffffffffff16631a6865026040518163ffffffff1660e01b815260040160206040518083038186803b15801561132957600080fd5b6000806113b2868686866120b0565b9150915094509492505050565b60008060008360020b126113d6578260020b6113de565b8260020b6000035b9050620d89e881111561145257604080517f08c379a000000000000000000000000000000000000000000000000000000000815260206004820152600160248201527f5400000000000000000000000000000000000000000000000000000000000000604482015290519081900360640190fd5b60006001821661147357700100000000000000000000000000000000611485565b6ffffcb933bd6fad37aa2d162d1a5940015b70ffffffffffffffffffffffffffffffffff16905060028216156114b9576ffff97272373d413259a46990580e213a0260801c5b60048216156114d8576ffff2e50f5f656932ef12357cf3c7fdcc0260801c5b60088216156114f7576fffe5caca7e10e4e61c3624eaa0941cd00260801c5b6010821615611516576fffcb9843d60f6159c9db58835c9266440260801c5b6020821615611535576fff973b41fa98c081472e6896dfb254c00260801c5b6040821615611554576fff2ea16466c96a3843ec78b326b528610260801c5b6080821615611573576ffe5dee046a99a2a811c461f1969c30530260801c5b610100821615611593576ffcbe86c7900a88aedcffc83b479aa3a40260801c5b6102008216156115b3576ff987a7253ac413176f2b074cf7815e540260801c5b6104008216156115d3576ff3392b0822b70005940c7a398e4b70f30260801c5b6108008216156115f3576fe7159475a2c29b7443b29c7fa6e889d90260801c5b611000821615611613576fd097f3bdfd2022b8845ad8f792aa58250260801c5b612000821615611633576fa9f746462d870fdf8a65dc1f90e061e50260801c5b614000821615611653576f70d869a156d2a1b890bb3df62baf32f70260801c5b618000821615611673576f31be135f97d08fd981231505542fcfa60260801c5b62010000821615611694576f09aa508b5b7a84e1c677de54f3e99bc90260801c5b620200008216156116b4576e5d6af8dedb81196699c329225ee6040260801c5b620400008216156116d3576d2216e584f5fa1ea926041bedfe980260801c5b620800008216156116f0576b048a170391f7dc42444e8fa20260801c5b60008460020b131561172957807fffffffffffffffffffffffffffffffffffffffffffffffffffffffffffffffff8161172557fe5b0490505b64010000000081061561173d576001611740565b60005b60ff16602082901c0192505050919050565b600080807fffffffffffffffffffffffffffffffffffffffffffffffffffffffffffffffff858709868602925082811090839003039050806117a6576000841161179b57600080fd5b50829004905061074c565b8084116117b257600080fd5b6000848688096000868103871696879004966002600389028118808a02820302808a02820302808a02820302808a02820302808a02820302808a02909103029181900381900460010186841190950394909402919094039290920491909117919091029150509392505050565b60008373ffffffffffffffffffffffffffffffffffffffff168573ffffffffffffffffffffffffffffffffffffffff161115611859579293925b816118a5576118a0836fffffffffffffffffffffffffffffffff1686860373ffffffffffffffffffffffffffffffffffffffff166c01000000000000000000000000611752565b6118e7565b6118e7836fffffffffffffffffffffffffffffffff1686860373ffffffffffffffffffffffffffffffffffffffff166c01000000000000000000000000611ace565b90505b949350505050565b60008373ffffffffffffffffffffffffffffffffffffffff168573ffffffffffffffffffffffffffffffffffffffff16111561192c579293925b7bffffffffffffffffffffffffffffffff000000000000000000000000606084901b1673ffffffffffffffffffffffffffffffffffffffff868603811690871661197557600080fd5b836119bf578673ffffffffffffffffffffffffffffffffffffffff166119b283838973ffffffffffffffffffffffffffffffffffffffff16611752565b816119b957fe5b046119ff565b6119ff6119e383838973ffffffffffffffffffffffffffffffffffffffff16611ace565b8873ffffffffffffffffffffffffffffffffffffffff1661231d565b979650505050505050565b6000808573ffffffffffffffffffffffffffffffffffffffff1611611a2e57600080fd5b6000846fffffffffffffffffffffffffffffffff1611611a4d57600080fd5b81611a5f576118a08585856001612328565b6118e78585856001612480565b6000808573ffffffffffffffffffffffffffffffffffffffff1611611a9057600080fd5b6000846fffffffffffffffffffffffffffffffff1611611aaf57600080fd5b81611ac1576118a08585856000612480565b6118e78585856000612328565b6000611adb848484611752565b905060008280611ae757fe5b848609111561074c577fffffffffffffffffffffffffffffffffffffffffffffffffffffffffffffffff8110611b1c57600080fd5b6001019392505050565b611b2e6128f5565b8273ffffffffffffffffffffffffffffffffffffffff168473ffffffffffffffffffffffffffffffffffffffff161115611b66579192915b506040805160608101825273ffffffffffffffffffffffffffffffffffffffff948516815292909316602083015262ffffff169181019190915290565b6000816020015173ffffffffffffffffffffffffffffffffffffffff16826000015173ffffffffffffffffffffffffffffffffffffffff1610611be557600080fd5b508051602080830151604093840151845173ffffffffffffffffffffffffffffffffffffffff94851681850152939091168385015262ffffff166060808401919091528351808403820181526080840185528051908301207fff0000000000000000000000000000000000000000000000000000000000000060a085015294901b7fffffffffffffffffffffffffffffffffffffffff0000000000000000000000001660a183015260b58201939093527fe34f199b19b2b4f47f68442619d555527d244f78a3297ea89325f843f87b8b5460d5808301919091528251808303909101815260f5909101909152805191012090565b600081826014011015611d4d57604080517f08c379a000000000000000000000000000000000000000000000000000000000815260206004820152601260248201527f746f416464726573735f6f766572666c6f770000000000000000000000000000604482015290519081900360640190fd5b8160140183511015611dc057604080517f08c379a000000000000000000000000000000000000000000000000000000000815260206004820152601560248201527f746f416464726573735f6f75744f66426f756e64730000000000000000000000604482015290519081900360640190fd5b5001602001516c01000000000000000000000000900490565b600081826003011015611e4d57604080517f08c379a000000000000000000000000000000000000000000000000000000000815260206004820152601160248201527f746f55696e7432345f6f766572666c6f77000000000000000000000000000000604482015290519081900360640190fd5b8160030183511015611ec057604080517f08c379a000000000000000000000000000000000000000000000000000000000815260206004820152601460248201527f746f55696e7432345f6f75744f66426f756e6473000000000000000000000000604482015290519081900360640190fd5b50016003015190565b60608182601f011015611f3d57604080517f08c379a000000000000000000000000000000000000000000000000000000000815260206004820152600e60248201527f736c6963655f6f766572666c6f77000000000000000000000000000000000000604482015290519081900360640190fd5b828284011015611fae57604080517f08c379a000000000000000000000000000000000000000000000000000000000815260206004820152600e60248201527f736c6963655f6f766572666c6f77000000000000000000000000000000000000604482015290519081900360640190fd5b8183018451101561202057604080517f08c379a000000000000000000000000000000000000000000000000000000000815260206004820152601160248201527f736c6963655f6f75744f66426f756e6473000000000000000000000000000000604482015290519081900360640190fd5b60608215801561203f57604051915060008252602082016040526120a7565b6040519150601f8416801560200281840101858101878315602002848b0101015b81831015612078578051835260209283019201612060565b5050858452601f017fffffffffffffffffffffffffffffffffffffffffffffffffffffffffffffffe016604052505b50949350505050565b6000808581600286810b9088900b816120c557fe5b05905060008760020b1280156120ec57508560020b8760020b816120e557fe5b0760020b15155b15612114577fffffffffffffffffffffffffffffffffffffffffffffffffffffffffffffffff015b841561222f57600080612126836125b6565b604080517f5339c296000000000000000000000000000000000000000000000000000000008152600184810b6004830152915193955091935060ff84161b80017fffffffffffffffffffffffffffffffffffffffffffffffffffffffffffffffff0191600091839173ffffffffffffffffffffffffffffffffffffffff891691635339c296916024808301926020929190829003018186803b1580156121cb57600080fd5b505afa1580156121df573d6000803e3d6000fd5b505050506040513d60208110156121f557600080fd5b505116801515975090508661221157898360ff16860302612224565b8961221b826125c8565b840360ff168603025b975050505050612312565b60008061223e836001016125b6565b91509150600060018260ff166001901b031990506000818673ffffffffffffffffffffffffffffffffffffffff16635339c296866040518263ffffffff1660e01b8152600401808260010b815260200191505060206040518083038186803b1580156122a957600080fd5b505afa1580156122bd573d6000803e3d6000fd5b505050506040513d60208110156122d357600080fd5b50511680151597509050866122f557898360ff0360ff1686600101010261230b565b898361230083612675565b0360ff168660010101025b9750505050505b505094509492505050565b808204910615150190565b600081156123d057600073ffffffffffffffffffffffffffffffffffffffff84111561237d57612378846c01000000000000000000000000876fffffffffffffffffffffffffffffffff16611752565b61239e565b6fffffffffffffffffffffffffffffffff8516606085901b8161239c57fe5b045b90506123c86123c373ffffffffffffffffffffffffffffffffffffffff881683612858565b612868565b9150506118ea565b600073ffffffffffffffffffffffffffffffffffffffff84111561241d57612418846c01000000000000000000000000876fffffffffffffffffffffffffffffffff16611ace565b61243d565b61243d606085901b6fffffffffffffffffffffffffffffffff871661231d565b9050808673ffffffffffffffffffffffffffffffffffffffff161161246157600080fd5b73ffffffffffffffffffffffffffffffffffffffff86160390506118ea565b60008261248e5750836118ea565b7bffffffffffffffffffffffffffffffff000000000000000000000000606085901b1682156125555773ffffffffffffffffffffffffffffffffffffffff8616848102908582816124db57fe5b041415612519578181018281106125175761250d838973ffffffffffffffffffffffffffffffffffffffff1683611ace565b93505050506118ea565b505b61254c82612547878a73ffffffffffffffffffffffffffffffffffffffff16868161254057fe5b0490612858565b61231d565b925050506118ea565b73ffffffffffffffffffffffffffffffffffffffff86168481029085828161257957fe5b0414801561258657508082115b61258f57600080fd5b80820361250d6123c38473ffffffffffffffffffffffffffffffffffffffff8b1684611ace565b60020b600881901d9161010090910790565b60008082116125d657600080fd5b70010000000000000000000000000000000082106125f657608091821c91015b68010000000000000000821061260e57604091821c91015b640100000000821061262257602091821c91015b62010000821061263457601091821c91015b610100821061264557600891821c91015b6010821061265557600491821c91015b6004821061266557600291821c91015b600282106104ba57600101919050565b600080821161268357600080fd5b5060ff6fffffffffffffffffffffffffffffffff8216156126c5577fffffffffffffffffffffffffffffffffffffffffffffffffffffffffffffff80016126cd565b608082901c91505b67ffffffffffffffff821615612704577fffffffffffffffffffffffffffffffffffffffffffffffffffffffffffffffc00161270c565b604082901c91505b63ffffffff82161561273f577fffffffffffffffffffffffffffffffffffffffffffffffffffffffffffffffe001612747565b602082901c91505b61ffff821615612778577ffffffffffffffffffffffffffffffffffffffffffffffffffffffffffffffff001612780565b601082901c91505b60ff8216156127b0577ffffffffffffffffffffffffffffffffffffffffffffffffffffffffffffffff8016127b8565b600882901c91505b600f8216156127e8577ffffffffffffffffffffffffffffffffffffffffffffffffffffffffffffffffc016127f0565b600482901c91505b6003821615612820577ffffffffffffffffffffffffffffffffffffffffffffffffffffffffffffffffe01612828565b600282901c91505b60018216156104ba577fffffffffffffffffffffffffffffffffffffffffffffffffffffffffffffffff01919050565b8082018281101561058e57600080fd5b8073ffffffffffffffffffffffffffffffffffffffff811681146104ba57600080fd5b6040805160e081018252600080825260208201819052918101829052606081018290526080810182905260a0810182905260c081019190915290565b6040805160a08101825260008082526020820181905291810182905260608101829052608081019190915290565b604080516060810182526000808252602082018190529181019190915290565b80356104ba81612aea565b60008060008060808587031215612935578384fd5b843561294081612aea565b935060208501358015158114612954578384fd5b925060408501359150606085013561296b81612aea565b939692955090935050565b60008060408385031215612988578182fd5b823567ffffffffffffffff8082111561299f578384fd5b818501915085601f8301126129b2578384fd5b81356020828211156129c057fe5b6129f0817fffffffffffffffffffffffffffffffffffffffffffffffffffffffffffffffe0601f85011601612ac6565b92508183528781838601011115612a05578586fd5b818185018285013790820181019490945295939092013593505050565b600060a08284031215612a33578081fd5b60405160a0810181811067ffffffffffffffff82111715612a5057fe5b6040528235612a5e81612aea565b81526020830135612a6e81612aea565b602082015260408381013590820152606083013562ffffff81168114612a92578283fd5b6060820152612aa360808401612915565b60808201529392505050565b918252602082015260400190565b90815260200190565b60405181810167ffffffffffffffff81118282101715612ae257fe5b604052919050565b73ffffffffffffffffffffffffffffffffffffffff81168114612b0c57600080fd5b5056fea164736f6c6343000706000a",
  "devdoc": {
    "kind": "dev",
    "methods": {
      "quoteExactInput(bytes,uint256)": {
        "params": {
          "amountIn": "The amount of the first token to swap",
          "path": "The path of the swap, i.e. each token pair and the pool fee"
        },
        "returns": {
          "amountOut": "The amount of the last token that would be received"
        }
      },
      "quoteExactInputSingle((address,address,uint256,uint24,uint160))": {
        "params": {
          "params": "The params for the quote, encoded as `QuoteExactInputSingleParams` tokenIn The token being swapped in tokenOut The token being swapped out fee The fee of the token pool to consider for the pair amountIn The desired input amount sqrtPriceLimitX96 The price limit of the pool that cannot be exceeded by the swap"
        },
        "returns": {
          "amountOut": "The amount of `tokenOut` that would be received"
        }
      }
    },
    "version": 1
  },
  "userdoc": {
    "kind": "user",
    "methods": {
      "quoteExactInput(bytes,uint256)": {
        "notice": "Returns the amount out received for a given exact input swap without executing the swap"
      },
      "quoteExactInputSingle((address,address,uint256,uint24,uint160))": {
        "notice": "Returns the amount out received for a given exact input but for a swap of a single pool"
      }
    },
    "version": 1
  },
  "storageLayout": {
    "storage": [],
    "types": null
  }
}