{
  "address": "0x7B1A0A5c709dffBC67CEae9A90abD601D2d663D4",
  "abi": [
    {
      "inputs": [
        {
          "internalType": "address",
          "name": "_factory",
          "type": "address"
        },
        {
          "internalType": "address",
          "name": "_WETH9",
          "type": "address"
        }
      ],
      "stateMutability": "nonpayable",
      "type": "constructor"
    },
    {
      "inputs": [],
      "name": "WETH9",
      "outputs": [
        {
          "internalType": "address",
          "name": "",
          "type": "address"
        }
      ],
      "stateMutability": "view",
      "type": "function"
    },
    {
      "inputs": [],
      "name": "factory",
      "outputs": [
        {
          "internalType": "address",
          "name": "",
          "type": "address"
        }
      ],
      "stateMutability": "view",
      "type": "function"
    },
    {
      "inputs": [
        {
          "internalType": "address",
          "name": "poolAddress",
          "type": "address"
        },
        {
          "internalType": "int24",
          "name": "tick",
          "type": "int24"
        },
        {
          "internalType": "int24",
          "name": "tickSpacing",
          "type": "int24"
        },
        {
          "internalType": "bool",
          "name": "lte",
          "type": "bool"
        }
      ],
      "name": "nextInitializedTickWithinOneWord",
      "outputs": [
        {
          "internalType": "int24",
          "name": "next",
          "type": "int24"
        },
        {
          "internalType": "bool",
          "name": "initialized",
          "type": "bool"
        }
      ],
      "stateMutability": "view",
      "type": "function"
    },
    {
      "inputs": [
        {
          "internalType": "address",
          "name": "poolAddress",
          "type": "address"
        },
        {
          "internalType": "bool",
          "name": "zeroForOne",
          "type": "bool"
        },
        {
          "internalType": "int256",
          "name": "amountSpecified",
          "type": "int256"
        },
        {
          "internalType": "uint160",
          "name": "sqrtPriceLimitX96",
          "type": "uint160"
        }
      ],
      "name": "quote",
      "outputs": [
        {
          "internalType": "int256",
          "name": "amount0",
          "type": "int256"
        },
        {
          "internalType": "int256",
          "name": "amount1",
          "type": "int256"
        }
      ],
      "stateMutability": "view",
      "type": "function"
    },
    {
      "inputs": [
        {
          "internalType": "bytes",
          "name": "path",
          "type": "bytes"
        },
        {
          "internalType": "uint256",
          "name": "amountIn",
          "type": "uint256"
        }
      ],
      "name": "quoteExactInput",
      "outputs": [
        {
          "internalType": "uint256",
          "name": "amountOut",
          "type": "uint256"
        }
      ],
      "stateMutability": "view",
      "type": "function"
    },
    {
      "inputs": [
        {
          "components": [
            {
              "internalType": "address",
              "name": "tokenIn",
              "type": "address"
            },
            {
              "internalType": "address",
              "name": "tokenOut",
              "type": "address"
            },
            {
              "internalType": "uint256",
              "name": "amountIn",
              "type": "uint256"
            },
            {
              "internalType": "uint24",
              "name": "fee",
              "type": "uint24"
            },
            {
              "internalType": "uint160",
              "name": "sqrtPriceLimitX96",
              "type": "uint160"
            }
          ],
          "internalType": "struct IUniswapV3StaticQuoter.QuoteExactInputSingleParams",
          "name": "params",
          "type": "tuple"
        }
      ],
      "name": "quoteExactInputSingle",
      "outputs": [
        {
          "internalType": "uint256",
          "name": "amountOut",
          "type": "uint256"
        }
      ],
      "stateMutability": "view",
      "type": "function"
    }
  ],
  "transactionHash": "0x97f6e385a575e89ccdd0266b9174b4970ed49d4750ddad34d869e1ec6d28492c",
  "args": [
    "0x1F98431c8aD98523631AE4a59f267346ea31F984",
    "0xC02aaA39b223FE8D0A0e5C4F27eAD9083C756Cc2"
  ],
  "numDeployments": 1,
  "solcInputHash": "a258f41593807d448c7484727a9535af",
  "bytecode": "0x60c06040523480156200001157600080fd5b50604051620031e6380380620031e6833981016040819052620000349162000070565b6001600160601b0319606092831b8116608052911b1660a052620000a7565b80516001600160a01b03811681146200006b57600080fd5b919050565b6000806040838503121562000083578182fd5b6200008e8362000053565b91506200009e6020840162000053565b90509250929050565b60805160601c60a05160601c613110620000d660003980610130525080610ade5280611c2d52506131106000f3fe608060405234801561001057600080fd5b50600436106100725760003560e01c8063c45a015511610050578063c45a0155146100d7578063c6a5026a146100df578063cdca1753146100ff57610072565b806330097745146100775780634aa4a4fc146100a157806390405d36146100b6575b600080fd5b61008a610085366004612c8b565b610112565b604051610098929190612ff2565b60405180910390f35b6100a961012e565b6040516100989190612fb5565b6100c96100c4366004612c39565b610152565b604051610098929190613007565b6100a9610adc565b6100f26100ed366004612da3565b610b00565b6040516100989190613083565b6100f261010d366004612cdb565b610bc6565b60008061012186868686610c9b565b9150915094509492505050565b7f000000000000000000000000000000000000000000000000000000000000000081565b6000808584610196576040517f08c379a000000000000000000000000000000000000000000000000000000000815260040161018d90613015565b60405180910390fd5b60008173ffffffffffffffffffffffffffffffffffffffff1663ddca3f436040518163ffffffff1660e01b815260040160206040518083038186803b1580156101de57600080fd5b505afa1580156101f2573d6000803e3d6000fd5b505050506040513d601f19601f820116820180604052508101906102169190612f81565b905060008273ffffffffffffffffffffffffffffffffffffffff1663d0c93a7c6040518163ffffffff1660e01b815260040160206040518083038186803b15801561026057600080fd5b505afa158015610274573d6000803e3d6000fd5b505050506040513d601f19601f820116820180604052508101906102989190612d87565b905087610310576102a889610f4f565b73ffffffffffffffffffffffffffffffffffffffff168673ffffffffffffffffffffffffffffffffffffffff1611801561030b575073fffd8963efd1fc6a506488495d951d5263988d2673ffffffffffffffffffffffffffffffffffffffff8716105b61036d565b61031989610f4f565b73ffffffffffffffffffffffffffffffffffffffff168673ffffffffffffffffffffffffffffffffffffffff1610801561036d57506401000276a373ffffffffffffffffffffffffffffffffffffffff8716115b6103a3576040517f08c379a000000000000000000000000000000000000000000000000000000000815260040161018d9061304c565b60006040518060c001604052808a6103ca5760046103c08d610fde565b60ff16901c6103e1565b60106103d58d610fde565b60ff16816103df57fe5b065b60ff1681526020018573ffffffffffffffffffffffffffffffffffffffff16631a6865026040518163ffffffff1660e01b815260040160206040518083038186803b15801561042f57600080fd5b505afa158015610443573d6000803e3d6000fd5b505050506040513d601f19601f820116820180604052508101906104679190612e2b565b6fffffffffffffffffffffffffffffffff16815260200161048661106c565b63ffffffff168152602001600060060b8152602001600073ffffffffffffffffffffffffffffffffffffffff1681526020016000151581525090506000808913905060006040518060e001604052808b8152602001600081526020016104eb8e610f4f565b73ffffffffffffffffffffffffffffffffffffffff16815260200161050f8e611070565b60020b81526020018c61059f578773ffffffffffffffffffffffffffffffffffffffff1663461413196040518163ffffffff1660e01b815260040160206040518083038186803b15801561056257600080fd5b505afa158015610576573d6000803e3d6000fd5b505050506040513d601f19601f8201168201806040525081019061059a9190612f9d565b61061d565b8773ffffffffffffffffffffffffffffffffffffffff1663f30583996040518163ffffffff1660e01b815260040160206040518083038186803b1580156105e557600080fd5b505afa1580156105f9573d6000803e3d6000fd5b505050506040513d601f19601f8201168201806040525081019061061d9190612f9d565b815260200160006fffffffffffffffffffffffffffffffff16815260200184602001516fffffffffffffffffffffffffffffffff1681525090505b80511580159061069857508873ffffffffffffffffffffffffffffffffffffffff16816040015173ffffffffffffffffffffffffffffffffffffffff1614155b15610aa3576106a5612ba0565b604082015173ffffffffffffffffffffffffffffffffffffffff16815260608201516106d4908e90878f610c9b565b15156040830152600290810b810b602083018190527ffffffffffffffffffffffffffffffffffffffffffffffffffffffffffff27618910b121561073d577ffffffffffffffffffffffffffffffffffffffffffffffffffffffffffff27618602082015261075c565b6020810151620d89e860029190910b131561075c57620d89e860208201525b61076981602001516110ff565b73ffffffffffffffffffffffffffffffffffffffff166060820152604082015161081b908d6107ca578b73ffffffffffffffffffffffffffffffffffffffff16836060015173ffffffffffffffffffffffffffffffffffffffff16116107fe565b8b73ffffffffffffffffffffffffffffffffffffffff16836060015173ffffffffffffffffffffffffffffffffffffffff16105b61080c57826060015161080e565b8b5b60c085015185518a611492565b60c085015260a0840152608083015273ffffffffffffffffffffffffffffffffffffffff166040830152821561088a5761085e8160c001518260800151016116b8565b825103825260a081015161088090610875906116b8565b6020840151906116ea565b60208301526108c5565b6108978160a001516116b8565b825101825260c081015160808201516108bf916108b491016116b8565b602084015190611700565b60208301525b835160ff16156108f6576000846000015160ff168260c00151816108e557fe5b60c084018051929091049091039052505b806060015173ffffffffffffffffffffffffffffffffffffffff16826040015173ffffffffffffffffffffffffffffffffffffffff161415610a4857806040015115610a1f5760208101516040517ff30dba9300000000000000000000000000000000000000000000000000000000815260009173ffffffffffffffffffffffffffffffffffffffff8a169163f30dba939161099491600401612fe4565b6101006040518083038186803b1580156109ad57600080fd5b505afa1580156109c1573d6000803e3d6000fd5b505050506040513d601f19601f820116820180604052508101906109e59190612e45565b5050505050509150508c156109f8576000035b610a068360c0015182611716565b6fffffffffffffffffffffffffffffffff1660c0840152505b8b610a2e578060200151610a37565b60018160200151035b600290810b900b6060830152610a9d565b806000015173ffffffffffffffffffffffffffffffffffffffff16826040015173ffffffffffffffffffffffffffffffffffffffff1614610a9d57610a90826040015161185a565b600290810b900b60608301525b50610658565b8115158b151514610abc57602081015181518b03610ac9565b80600001518a0381602001515b909d909c509a5050505050505050505050565b7f000000000000000000000000000000000000000000000000000000000000000081565b60208101518151606083015160009273ffffffffffffffffffffffffffffffffffffffff80821690841610928492610b389290611c26565b9050600080610ba38385610b4f89604001516116b8565b60808a015173ffffffffffffffffffffffffffffffffffffffff1615610b795789608001516100c4565b87610b985773fffd8963efd1fc6a506488495d951d5263988d256100c4565b6401000276a4610152565b9150915083610bb55781600003610bba565b806000035b9450505050505b919050565b6000805b6000806000610bd887611c66565b9250925092506000610c576040518060a001604052808673ffffffffffffffffffffffffffffffffffffffff1681526020018573ffffffffffffffffffffffffffffffffffffffff1681526020018981526020018462ffffff168152602001600073ffffffffffffffffffffffffffffffffffffffff16815250610b00565b96505060019093019285610c6a88611c97565b15610c7f57610c7888611c9f565b9750610c8c565b8695505050505050610c95565b50505050610bca565b92915050565b6000808581600286810b9088900b81610cb057fe5b05905060008760020b128015610cd757508560020b8760020b81610cd057fe5b0760020b15155b15610cff577fffffffffffffffffffffffffffffffffffffffffffffffffffffffffffffffff015b8415610e2157600080610d1183611cd4565b6040517f5339c2960000000000000000000000000000000000000000000000000000000081529193509150600160ff83161b80017fffffffffffffffffffffffffffffffffffffffffffffffffffffffffffffffff0190600090829073ffffffffffffffffffffffffffffffffffffffff881690635339c29690610d99908890600401612fd6565b60206040518083038186803b158015610db157600080fd5b505afa158015610dc5573d6000803e3d6000fd5b505050506040513d601f19601f82011682018060405250810190610de99190612f9d565b168015159750905086610e0357898360ff16860302610e16565b89610e0d82611ce6565b840360ff168603025b975050505050610f44565b600080610e3083600101611cd4565b6040517f5339c29600000000000000000000000000000000000000000000000000000000815291935091507fffffffffffffffffffffffffffffffffffffffffffffffffffffffffffffffff600160ff84161b011990600090829073ffffffffffffffffffffffffffffffffffffffff881690635339c29690610eb7908890600401612fd6565b60206040518083038186803b158015610ecf57600080fd5b505afa158015610ee3573d6000803e3d6000fd5b505050506040513d601f19601f82011682018060405250810190610f079190612f9d565b168015159750905086610f2757898360ff0360ff16866001010102610f3d565b8983610f3283611d93565b0360ff168660010101025b9750505050505b505094509492505050565b6000808273ffffffffffffffffffffffffffffffffffffffff16633850c7bd6040518163ffffffff1660e01b815260040160e06040518083038186803b158015610f9857600080fd5b505afa158015610fac573d6000803e3d6000fd5b505050506040513d601f19601f82011682018060405250810190610fd09190612eeb565b509498975050505050505050565b6000808273ffffffffffffffffffffffffffffffffffffffff16633850c7bd6040518163ffffffff1660e01b815260040160e06040518083038186803b15801561102757600080fd5b505afa15801561103b573d6000803e3d6000fd5b505050506040513d601f19601f8201168201806040525081019061105f9190612eeb565b5098975050505050505050565b4290565b6000808273ffffffffffffffffffffffffffffffffffffffff16633850c7bd6040518163ffffffff1660e01b815260040160e06040518083038186803b1580156110b957600080fd5b505afa1580156110cd573d6000803e3d6000fd5b505050506040513d601f19601f820116820180604052508101906110f19190612eeb565b509398975050505050505050565b60008060008360020b12611116578260020b61111e565b8260020b6000035b9050620d89e881111561119257604080517f08c379a000000000000000000000000000000000000000000000000000000000815260206004820152600160248201527f5400000000000000000000000000000000000000000000000000000000000000604482015290519081900360640190fd5b6000600182166111b3577001000000000000000000000000000000006111c5565b6ffffcb933bd6fad37aa2d162d1a5940015b70ffffffffffffffffffffffffffffffffff16905060028216156111f9576ffff97272373d413259a46990580e213a0260801c5b6004821615611218576ffff2e50f5f656932ef12357cf3c7fdcc0260801c5b6008821615611237576fffe5caca7e10e4e61c3624eaa0941cd00260801c5b6010821615611256576fffcb9843d60f6159c9db58835c9266440260801c5b6020821615611275576fff973b41fa98c081472e6896dfb254c00260801c5b6040821615611294576fff2ea16466c96a3843ec78b326b528610260801c5b60808216156112b3576ffe5dee046a99a2a811c461f1969c30530260801c5b6101008216156112d3576ffcbe86c7900a88aedcffc83b479aa3a40260801c5b6102008216156112f3576ff987a7253ac413176f2b074cf7815e540260801c5b610400821615611313576ff3392b0822b70005940c7a398e4b70f30260801c5b610800821615611333576fe7159475a2c29b7443b29c7fa6e889d90260801c5b611000821615611353576fd097f3bdfd2022b8845ad8f792aa58250260801c5b612000821615611373576fa9f746462d870fdf8a65dc1f90e061e50260801c5b614000821615611393576f70d869a156d2a1b890bb3df62baf32f70260801c5b6180008216156113b3576f31be135f97d08fd981231505542fcfa60260801c5b620100008216156113d4576f09aa508b5b7a84e1c677de54f3e99bc90260801c5b620200008216156113f4576e5d6af8dedb81196699c329225ee6040260801c5b62040000821615611413576d2216e584f5fa1ea926041bedfe980260801c5b62080000821615611430576b048a170391f7dc42444e8fa20260801c5b60008460020b131561146957807fffffffffffffffffffffffffffffffffffffffffffffffffffffffffffffffff8161146557fe5b0490505b64010000000081061561147d576001611480565b60005b60ff16602082901c0192505050919050565b600080808073ffffffffffffffffffffffffffffffffffffffff808916908a1610158187128015906115245760006114d88989620f42400362ffffff16620f4240611f76565b9050826114f1576114ec8c8c8c6001612043565b6114fe565b6114fe8b8d8c6001612116565b955085811061150f578a965061151e565b61151b8c8b838661222e565b96505b5061156e565b8161153b576115368b8b8b6000612116565b611548565b6115488a8c8b6000612043565b935083886000031061155c5789955061156e565b61156b8b8a8a60000385612290565b95505b73ffffffffffffffffffffffffffffffffffffffff8a81169087161482156115de5780801561159a5750815b6115b0576115ab878d8c6001612116565b6115b2565b855b95508080156115bf575081155b6115d5576115d0878d8c6000612043565b6115d7565b845b9450611628565b8080156115e85750815b6115fe576115f98c888c6001612043565b611600565b855b955080801561160d575081155b6116235761161e8c888c6000612116565b611625565b845b94505b8115801561163857508860000385115b15611644578860000394505b81801561167d57508a73ffffffffffffffffffffffffffffffffffffffff168773ffffffffffffffffffffffffffffffffffffffff1614155b1561168c5785890393506116a9565b6116a6868962ffffff168a620f42400362ffffff166122f2565b93505b50505095509550955095915050565b60007f800000000000000000000000000000000000000000000000000000000000000082106116e657600080fd5b5090565b80820382811315600083121514610c9557600080fd5b81810182811215600083121514610c9557600080fd5b60008082600f0b12156117c257826fffffffffffffffffffffffffffffffff168260000384039150816fffffffffffffffffffffffffffffffff16106117bd57604080517f08c379a000000000000000000000000000000000000000000000000000000000815260206004820152600260248201527f4c53000000000000000000000000000000000000000000000000000000000000604482015290519081900360640190fd5b610c95565b826fffffffffffffffffffffffffffffffff168284019150816fffffffffffffffffffffffffffffffff161015610c9557604080517f08c379a000000000000000000000000000000000000000000000000000000000815260206004820152600260248201527f4c41000000000000000000000000000000000000000000000000000000000000604482015290519081900360640190fd5b60006401000276a373ffffffffffffffffffffffffffffffffffffffff8316108015906118b0575073fffd8963efd1fc6a506488495d951d5263988d2673ffffffffffffffffffffffffffffffffffffffff8316105b61191b57604080517f08c379a000000000000000000000000000000000000000000000000000000000815260206004820152600160248201527f5200000000000000000000000000000000000000000000000000000000000000604482015290519081900360640190fd5b77ffffffffffffffffffffffffffffffffffffffff00000000602083901b166fffffffffffffffffffffffffffffffff811160071b81811c67ffffffffffffffff811160061b90811c63ffffffff811160051b90811c61ffff811160041b90811c60ff8111600390811b91821c600f811160021b90811c918211600190811b92831c979088119617909417909217179091171717608081106119c557607f810383901c91506119cf565b80607f0383901b91505b908002607f81811c60ff83811c9190911c800280831c81831c1c800280841c81841c1c800280851c81851c1c800280861c81861c1c800280871c81871c1c800280881c81881c1c800280891c81891c1c8002808a1c818a1c1c8002808b1c818b1c1c8002808c1c818c1c1c8002808d1c818d1c1c8002808e1c9c81901c9c909c1c80029c8d901c9e9d7fffffffffffffffffffffffffffffffffffffffffffffffffffffffffffffff808f0160401b60c09190911c678000000000000000161760c19b909b1c674000000000000000169a909a1760c29990991c672000000000000000169890981760c39790971c671000000000000000169690961760c49590951c670800000000000000169490941760c59390931c670400000000000000169290921760c69190911c670200000000000000161760c79190911c670100000000000000161760c89190911c6680000000000000161760c99190911c6640000000000000161760ca9190911c6620000000000000161760cb9190911c6610000000000000161760cc9190911c6608000000000000161760cd9190911c66040000000000001617693627a301d71055774c8581027ffffffffffffffffffffffffffffffffffd709b7e5480fba5a50fed5e62ffc5568101608090811d906fdb2df09e81959a81455e260799a0632f8301901d600281810b9083900b14611c17578873ffffffffffffffffffffffffffffffffffffffff16611bee826110ff565b73ffffffffffffffffffffffffffffffffffffffff161115611c105781611c12565b805b611c19565b815b9998505050505050505050565b6000611c5c7f0000000000000000000000000000000000000000000000000000000000000000611c5786868661234a565b6123c7565b90505b9392505050565b60008080611c7484826124fd565b9250611c818460146125fd565b9050611c8e8460176124fd565b91509193909250565b516042111590565b8051606090610c959083906017907fffffffffffffffffffffffffffffffffffffffffffffffffffffffffffffffe9016126ed565b60020b600881901d9161010090910790565b6000808211611cf457600080fd5b7001000000000000000000000000000000008210611d1457608091821c91015b680100000000000000008210611d2c57604091821c91015b6401000000008210611d4057602091821c91015b620100008210611d5257601091821c91015b6101008210611d6357600891821c91015b60108210611d7357600491821c91015b60048210611d8357600291821c91015b60028210610bc157600101919050565b6000808211611da157600080fd5b5060ff6fffffffffffffffffffffffffffffffff821615611de3577fffffffffffffffffffffffffffffffffffffffffffffffffffffffffffffff8001611deb565b608082901c91505b67ffffffffffffffff821615611e22577fffffffffffffffffffffffffffffffffffffffffffffffffffffffffffffffc001611e2a565b604082901c91505b63ffffffff821615611e5d577fffffffffffffffffffffffffffffffffffffffffffffffffffffffffffffffe001611e65565b602082901c91505b61ffff821615611e96577ffffffffffffffffffffffffffffffffffffffffffffffffffffffffffffffff001611e9e565b601082901c91505b60ff821615611ece577ffffffffffffffffffffffffffffffffffffffffffffffffffffffffffffffff801611ed6565b600882901c91505b600f821615611f06577ffffffffffffffffffffffffffffffffffffffffffffffffffffffffffffffffc01611f0e565b600482901c91505b6003821615611f3e577ffffffffffffffffffffffffffffffffffffffffffffffffffffffffffffffffe01611f46565b600282901c91505b6001821615610bc1577fffffffffffffffffffffffffffffffffffffffffffffffffffffffffffffffff01919050565b600080807fffffffffffffffffffffffffffffffffffffffffffffffffffffffffffffffff85870986860292508281109083900303905080611fca5760008411611fbf57600080fd5b508290049050611c5f565b808411611fd657600080fd5b6000848688096000868103871696879004966002600389028118808a02820302808a02820302808a02820302808a02820302808a02820302808a02909103029181900381900460010186841190950394909402919094039290920491909117919091029150509392505050565b60008373ffffffffffffffffffffffffffffffffffffffff168573ffffffffffffffffffffffffffffffffffffffff16111561207d579293925b816120c9576120c4836fffffffffffffffffffffffffffffffff1686860373ffffffffffffffffffffffffffffffffffffffff166c01000000000000000000000000611f76565b61210b565b61210b836fffffffffffffffffffffffffffffffff1686860373ffffffffffffffffffffffffffffffffffffffff166c010000000000000000000000006122f2565b90505b949350505050565b60008373ffffffffffffffffffffffffffffffffffffffff168573ffffffffffffffffffffffffffffffffffffffff161115612150579293925b7bffffffffffffffffffffffffffffffff000000000000000000000000606084901b1673ffffffffffffffffffffffffffffffffffffffff868603811690871661219957600080fd5b836121e3578673ffffffffffffffffffffffffffffffffffffffff166121d683838973ffffffffffffffffffffffffffffffffffffffff16611f76565b816121dd57fe5b04612223565b61222361220783838973ffffffffffffffffffffffffffffffffffffffff166122f2565b8873ffffffffffffffffffffffffffffffffffffffff166128d4565b979650505050505050565b6000808573ffffffffffffffffffffffffffffffffffffffff161161225257600080fd5b6000846fffffffffffffffffffffffffffffffff161161227157600080fd5b81612283576120c485858560016128df565b61210b8585856001612a37565b6000808573ffffffffffffffffffffffffffffffffffffffff16116122b457600080fd5b6000846fffffffffffffffffffffffffffffffff16116122d357600080fd5b816122e5576120c48585856000612a37565b61210b85858560006128df565b60006122ff848484611f76565b90506000828061230b57fe5b8486091115611c5f577fffffffffffffffffffffffffffffffffffffffffffffffffffffffffffffffff811061234057600080fd5b6001019392505050565b612352612bdc565b8273ffffffffffffffffffffffffffffffffffffffff168473ffffffffffffffffffffffffffffffffffffffff16111561238a579192915b506040805160608101825273ffffffffffffffffffffffffffffffffffffffff948516815292909316602083015262ffffff169181019190915290565b6000816020015173ffffffffffffffffffffffffffffffffffffffff16826000015173ffffffffffffffffffffffffffffffffffffffff161061240957600080fd5b508051602080830151604093840151845173ffffffffffffffffffffffffffffffffffffffff94851681850152939091168385015262ffffff166060808401919091528351808403820181526080840185528051908301207fff0000000000000000000000000000000000000000000000000000000000000060a085015294901b7fffffffffffffffffffffffffffffffffffffffff0000000000000000000000001660a183015260b58201939093527fe34f199b19b2b4f47f68442619d555527d244f78a3297ea89325f843f87b8b5460d5808301919091528251808303909101815260f5909101909152805191012090565b60008182601401101561257157604080517f08c379a000000000000000000000000000000000000000000000000000000000815260206004820152601260248201527f746f416464726573735f6f766572666c6f770000000000000000000000000000604482015290519081900360640190fd5b81601401835110156125e457604080517f08c379a000000000000000000000000000000000000000000000000000000000815260206004820152601560248201527f746f416464726573735f6f75744f66426f756e64730000000000000000000000604482015290519081900360640190fd5b5001602001516c01000000000000000000000000900490565b60008182600301101561267157604080517f08c379a000000000000000000000000000000000000000000000000000000000815260206004820152601160248201527f746f55696e7432345f6f766572666c6f77000000000000000000000000000000604482015290519081900360640190fd5b81600301835110156126e457604080517f08c379a000000000000000000000000000000000000000000000000000000000815260206004820152601460248201527f746f55696e7432345f6f75744f66426f756e6473000000000000000000000000604482015290519081900360640190fd5b50016003015190565b60608182601f01101561276157604080517f08c379a000000000000000000000000000000000000000000000000000000000815260206004820152600e60248201527f736c6963655f6f766572666c6f77000000000000000000000000000000000000604482015290519081900360640190fd5b8282840110156127d257604080517f08c379a000000000000000000000000000000000000000000000000000000000815260206004820152600e60248201527f736c6963655f6f766572666c6f77000000000000000000000000000000000000604482015290519081900360640190fd5b8183018451101561284457604080517f08c379a000000000000000000000000000000000000000000000000000000000815260206004820152601160248201527f736c6963655f6f75744f66426f756e6473000000000000000000000000000000604482015290519081900360640190fd5b60608215801561286357604051915060008252602082016040526128cb565b6040519150601f8416801560200281840101858101878315602002848b0101015b8183101561289c578051835260209283019201612884565b5050858452601f017fffffffffffffffffffffffffffffffffffffffffffffffffffffffffffffffe016604052505b50949350505050565b808204910615150190565b6000811561298757600073ffffffffffffffffffffffffffffffffffffffff8411156129345761292f846c01000000000000000000000000876fffffffffffffffffffffffffffffffff16611f76565b612955565b6fffffffffffffffffffffffffffffffff8516606085901b8161295357fe5b045b905061297f61297a73ffffffffffffffffffffffffffffffffffffffff881683612b6d565b612b7d565b91505061210e565b600073ffffffffffffffffffffffffffffffffffffffff8411156129d4576129cf846c01000000000000000000000000876fffffffffffffffffffffffffffffffff166122f2565b6129f4565b6129f4606085901b6fffffffffffffffffffffffffffffffff87166128d4565b9050808673ffffffffffffffffffffffffffffffffffffffff1611612a1857600080fd5b73ffffffffffffffffffffffffffffffffffffffff861603905061210e565b600082612a4557508361210e565b7bffffffffffffffffffffffffffffffff000000000000000000000000606085901b168215612b0c5773ffffffffffffffffffffffffffffffffffffffff861684810290858281612a9257fe5b041415612ad057818101828110612ace57612ac4838973ffffffffffffffffffffffffffffffffffffffff16836122f2565b935050505061210e565b505b612b0382612afe878a73ffffffffffffffffffffffffffffffffffffffff168681612af757fe5b0490612b6d565b6128d4565b9250505061210e565b73ffffffffffffffffffffffffffffffffffffffff861684810290858281612b3057fe5b04148015612b3d57508082115b612b4657600080fd5b808203612ac461297a8473ffffffffffffffffffffffffffffffffffffffff8b16846122f2565b80820182811015610c9557600080fd5b8073ffffffffffffffffffffffffffffffffffffffff81168114610bc157600080fd5b6040805160e081018252600080825260208201819052918101829052606081018290526080810182905260a0810182905260c081019190915290565b604080516060810182526000808252602082018190529181019190915290565b8051610bc1816130d5565b80516fffffffffffffffffffffffffffffffff81168114610bc157600080fd5b805161ffff81168114610bc157600080fd5b60008060008060808587031215612c4e578384fd5b8435612c59816130b0565b93506020850135612c69816130d5565b9250604085013591506060850135612c80816130b0565b939692955090935050565b60008060008060808587031215612ca0578384fd5b8435612cab816130b0565b93506020850135612cbb816130e3565b92506040850135612ccb816130e3565b91506060850135612c80816130d5565b60008060408385031215612ced578182fd5b823567ffffffffffffffff80821115612d04578384fd5b818501915085601f830112612d17578384fd5b8135602082821115612d2557fe5b612d55817fffffffffffffffffffffffffffffffffffffffffffffffffffffffffffffffe0601f8501160161308c565b92508183528781838601011115612d6a578586fd5b818185018285013790820181019490945295939092013593505050565b600060208284031215612d98578081fd5b8151611c5f816130e3565b600060a08284031215612db4578081fd5b60405160a0810181811067ffffffffffffffff82111715612dd157fe5b6040528235612ddf816130b0565b81526020830135612def816130b0565b6020820152604083810135908201526060830135612e0c816130f2565b60608201526080830135612e1f816130b0565b60808201529392505050565b600060208284031215612e3c578081fd5b611c5f82612c07565b600080600080600080600080610100898b031215612e61578586fd5b612e6a89612c07565b9750602089015180600f0b8114612e7f578687fd5b80975050604089015195506060890151945060808901518060060b8114612ea4578485fd5b60a08a0151909450612eb5816130b0565b60c08a015190935063ffffffff81168114612ece578283fd5b9150612edc60e08a01612bfc565b90509295985092959890939650565b600080600080600080600060e0888a031215612f05578081fd5b8751612f10816130b0565b6020890151909750612f21816130e3565b9550612f2f60408901612c27565b9450612f3d60608901612c27565b9350612f4b60808901612c27565b925060a088015160ff81168114612f60578182fd5b60c0890151909250612f71816130d5565b8091505092959891949750929550565b600060208284031215612f92578081fd5b8151611c5f816130f2565b600060208284031215612fae578081fd5b5051919050565b73ffffffffffffffffffffffffffffffffffffffff91909116815260200190565b60019190910b815260200190565b60029190910b815260200190565b60029290920b82521515602082015260400190565b918252602082015260400190565b60208082526002908201527f4153000000000000000000000000000000000000000000000000000000000000604082015260600190565b60208082526003908201527f53504c0000000000000000000000000000000000000000000000000000000000604082015260600190565b90815260200190565b60405181810167ffffffffffffffff811182821017156130a857fe5b604052919050565b73ffffffffffffffffffffffffffffffffffffffff811681146130d257600080fd5b50565b80151581146130d257600080fd5b8060020b81146130d257600080fd5b62ffffff811681146130d257600080fdfea164736f6c6343000706000a",
  "devdoc": {
    "kind": "dev",
    "methods": {
      "nextInitializedTickWithinOneWord(address,int24,int24,bool)": {
        "params": {
          "lte": "Whether to search for the next initialized tick to the left (less than or equal to the starting tick)",
          "poolAddress": "Pool containing the mapping in which to compute the next initialized tick",
          "tick": "The starting tick",
          "tickSpacing": "The spacing between usable ticks"
        },
        "returns": {
          "initialized": "Whether the next tick is initialized, as the function only searches within up to 256 ticks",
          "next": "The next initialized or uninitialized tick up to 256 ticks away from the current tick"
        }
      },
      "quoteExactInput(bytes,uint256)": {
        "params": {
          "amountIn": "The amount of the first token to swap",
          "path": "The path of the swap, i.e. each token pair and the pool fee"
        },
        "returns": {
          "amountOut": "The amount of the last token that would be received"
        }
      },
      "quoteExactInputSingle((address,address,uint256,uint24,uint160))": {
        "params": {
          "params": "The params for the quote, encoded as `QuoteExactInputSingleParams` tokenIn The token being swapped in tokenOut The token being swapped out fee The fee of the token pool to consider for the pair amountIn The desired input amount sqrtPriceLimitX96 The price limit of the pool that cannot be exceeded by the swap"
        },
        "returns": {
          "amountOut": "The amount of `tokenOut` that would be received"
        }
      }
    },
    "version": 1
  },
  "userdoc": {
    "kind": "user",
    "methods": {
      "nextInitializedTickWithinOneWord(address,int24,int24,bool)": {
        "notice": "Returns the next initialized tick contained in the same word (or adjacent word) as the tick that is either to the left (less than or equal to) or right (greater than) of the given tick"
      },
      "quoteExactInput(bytes,uint256)": {
        "notice": "Returns the amount out received for a given exact input swap without executing the swap"
      },
      "quoteExactInputSingle((address,address,uint256,uint24,uint160))": {
        "notice": "Returns the amount out received for a given exact input but for a swap of a single pool"
      }
    },
    "version": 1
  },
  "storageLayout": {
    "storage": [],
    "types": null
  }
}